:100000000C9433030C949F0E0C94740E0C94490EB4
:100010000C941E0E0C94F30D0C94C80D0C949D0DB5
:100020000C94720D0C9464030C9464030C9464039C
:100030000C9480180C9464030C9464030C94640373
:100040000C9464030C9464030C9464030C94640394
:100050000C9464030C9464030C9464030C94280DB6
:100060000C9464030C94F40E0C94CA0E0C94640368
:100070000C9464030C9464030C9464030C94640364
:100080000C9464030C9464030C9464030C94640354
:100090000C9464030C9464030C9464030C94640344
:1000A0000C9464030C9464030C9464030C94640334
:1000B0000C9464030C9464030C9464030C94640324
:1000C0000C9464030C9464030C9464030C94640314
:1000D0000C9464030C9464030C9464030C94640304
:1000E0000C9464030C94C4030C94FF040C94250337
:1000F0000C949F030C94EB060C94BB030C94DC044F
:100100000C94C0040C94D2040C94AE040C94B1036F
:100110000C948E030C9483180C948A030C945E0840
:100120000C94F1060C9492030C94C5030C940905ED
:100130000C948E010C9413030C94BC010C944E0689
:100140000C9466050C9475050C94C9030C94BF03BC
:100150000C94A3030C94AD030C9499030C94E50642
:100160000C9401060C94A4040C9413050C94B8048C
:100170000C9496030C9438050C9439050C941D05C9
:100180000C94F5040C9427050C9484030C942B0315
:100190000C94A9030C94E6040C94C8040C949504E4
:1001A0000C94DF060C94C9050C949A040C94BB05BE
:1001B0000C94B7030C94E8020C948D040C94350A4B
:1001C0004E414E494E495459494E46CDCCCC3D0A3C
:1001D000D7233C17B7D13877CC2B329595E6241F1F
:1001E000B14F0A000020410000C84200401C4620D8
:1001F000BCBE4CCA1B0E5AAEC59D74000021002423
:100200000027002A002D0030003300010100000407
:100210000107010A0100002200250028002B002E02
:10022000003100340002010000050108010B01004B
:100230000020002300260029002C002F003200009F
:100240000100000301060109010505050507050870
:10025000080808020202020A0A0808040404040149
:10026000010101010101010303030303030303046B
:100270000707070C0C0C0C0C0C0C0C0202020206FB
:10028000060606060606060B0B0B0B0B0B0B0B01EB
:100290000210202008081020401020408002010297
:1002A000010804020101020408102040808040205F
:1002B000100804020180040201804020100804029A
:1002C0000108040201010204081020408001020418
:1002D000081020408000000A0B02090C0D0E0807D0
:1002E0000304010000000000000000000000000006
:1002F00000000000000000000000000000000000FE
:1003000000121110000000000000000000000000BA
:100310000000000000000000000000008091B60214
:10032000811109C080911803823010F00E94D11110
:100330000E946E06F3CF0FB6F8940F92E091F90287
:10034000F091FA02C681D781CE0102960E944D0F2C
:10035000809141038150809341038091B602815086
:100360008093B6020F900FBE8F89988D0E94381629
:10037000CE010E943816D2CFCF93DF9300D01F92C8
:100380001F92CDB7DEB785E0B82ECE0101967C0175
:10039000E091D302F091D4021081D12CC12C112311
:1003A00029F00580F681E02DC080D1800E94CB111C
:1003B0000E94C1114C018091CD029091CE0288160D
:1003C000990608F08BC00E942C109092CE02809269
:1003D000CD020E949912D701EB2D1D92EA95E9F703
:1003E0000091CF021091D0020FB6F8940F92D8016D
:1003F0005A96DC905A97DD2009F431C15C964C91F5
:100400005C974423F9F050E016968D919C911797D4
:10041000840F951F17969C938E93169714962D9183
:100420003C9115978217930738F08D919C91119705
:1004300017969C938E931697F80166817781C70172
:100440000E94C51FDA94D8015A96DC925A971896E2
:100450008C91882339F0C80108960E94DA10811126
:100460000E94D1110F900FBEA980A7FCB9CF0C81BB
:100470001D81D8011A968D919C91892B21F0C8017C
:1004800002960E944D0F0E94C1116C018091CD0215
:100490009091CE02C816D90610F40E942C10D0926A
:1004A000CE02C092CD02EFEFEA0DE93008F098CF0E
:1004B0000E2E000CFF0BD80152969C915297882764
:1004C000EB59FD4F8F4F0C94C21DE802E8022B033D
:1004D00013032503E802E8022B0313039092CE02D4
:1004E0008092CD02112351F08C149D0470F00E9473
:1004F0009912B401C6010E9402106DCFE091D102A1
:10050000F091D20261E08081811160E00091CF0220
:100510001091D0020FB6F8940F92D8015D968C918D
:100520005D978F3F11F45D961C92F801868D8F3F89
:1005300009F4168E0F900FBED8015A968C915A97D7
:1005400081113CC05296ED91FC91A0913F03B09176
:1005500040031F96FC93EE931E97A0913F03B0912A
:1005600040038481958151969C938E9350978091FE
:100570003F0390914003A481B5810C9613969C9300
:100580008E93129780913F03909140030C96958330
:100590008483E0913F03F0914003C8014196958B1D
:1005A000848BF80181898F5F818BC6018819990935
:1005B000662311F08FEF9FEF0E944A10C8010E943E
:1005C0007F110E949912811106CF0E94D11103CF91
:1005D0009160F801928B8A809B8064857585680D97
:1005E000791D9401A601C8010E94B40F882309F463
:1005F000F7CED80152968C91529782FF10C01C966C
:100600006D917C91680D791DA601C8010E94DE0FD5
:10061000D8015096ED91FC91C8011995E1CE8E7FDD
:10062000F801828BF5CF916052969C9352976A8124
:100630007B811D967C936E931C976C0D7D1D96019E
:10064000A601C8010E94B40FCBCE91FD04C0C80121
:100650000E943816C5CE9E7FF801928BC1CE0F90B6
:100660000FBE96CE831811241FBECFEFD1E2DEBF9E
:10067000CDBF00E00CBF12E0A0E0B2E0ECEBFFE386
:1006800000E00BBF02C007900D92A038B107D9F768
:1006900025E0A0E8B2E001C01D92A730B207E1F763
:1006A00013E0C3E3D3E000E006C021970109802FE7
:1006B000FE010E94C21DC233D10780E00807A9F7DE
:1006C0000E9407190C94DC1F0C94000081508231A9
:1006D00008F05AC0E82FF0E08827EE58FC4F8F4F03
:1006E0000C94C21D9203960384038A038E03C403F1
:1006F00099039F03A303A903AD03B103B703BB038E
:10070000C403BF03C503C903809180008F77809322
:1007100080000895809180008F7DF9CF80918000C6
:10072000877FF5CF84B58F7784BD089584B58F7D9D
:10073000FBCF8091B0008F778093B00008958091B7
:10074000B0008F7DF9CF809190008F7780939000DB
:100750000895809190008F7DF9CF80919000877FE0
:10076000F5CF8091A0008F778093A00008958091AD
:10077000A0008F7DF9CF8091A000877FF5CF809179
:1007800020018F77809320010895809120018F7D33
:10079000F9CF80912001877FF5CFCF93DF93282F6A
:1007A00030E0F901EB52FD4F8491F901E157FD4F23
:1007B000D491F901E75BFD4FC491CC23A1F08111E5
:1007C0000E946603EC2FF0E0EE0FFF1FE15DFD4F8E
:1007D000A591B491EC91ED2381E090E009F480E0E3
:1007E000DF91CF91089580E090E0FACF1F93CF93EF
:1007F000DF93282F30E0F901EB52FD4F8491F9018E
:10080000E157FD4FD491F901E75BFD4FC491CC2333
:10081000A9F0162F81110E946603EC2FF0E0EE0F75
:10082000FF1FEB5EFD4FA591B4918FB7F894EC914B
:10083000111108C0D095DE23DC938FBFDF91CF91DB
:100840001F910895DE2BF8CFCF93DF9390E0FC014A
:10085000E157FD4F2491875B9D4FFC0184918823D4
:10086000D1F090E0880F991FFC01E550FE4FA59153
:10087000B491FC01EB5EFD4FC591D49161110EC0A6
:100880009FB7F8948C91E22FE0958E238C9328816A
:10089000E223E8839FBFDF91CF9108958FB7F8944B
:1008A000EC91E22BEC938FBFF6CF1F93CF93DF93A6
:1008B000182FEB0161E00E942404209739F460E0D6
:1008C000812FDF91CF911F910C94F603CF3FD1057B
:1008D00011F461E0F5CFE12FF0E0EB52FD4FE49130
:1008E000E150E23108F0B3C0F0E08827E558FB4F53
:1008F0008F4F0C94C21D8D0495049A04A404AE0479
:100900002705B804C004C804D204DC04E604F504D6
:10091000FF042705090513051D0584B5806884BDFE
:10092000C7BDDF91CF911F91089584B5806284BDCA
:10093000C8BDF7CF80918000806880938000D093FD
:100940008900C0938800EDCF809180008062809301
:100950008000D0938B00C0938A00E3CF8091800009
:10096000886080938000D0938D00C0938C00D9CF95
:100970008091B00080688093B000C093B300D1CF65
:100980008091B00080628093B000C093B400C9CF62
:1009900080919000806880939000D0939900C093DC
:1009A0009800BFCF80919000806280939000D09398
:1009B0009B00C0939A00B5CF80919000886080938F
:1009C0009000D0939D00C0939C00ABCF8091A0007D
:1009D00080688093A0008091A0008F7B8093A0000E
:1009E000D093A900C093A8009CCF8091A000806202
:1009F0008093A000D093AB00C093AA0092CF8091C7
:100A0000A00088608093A000D093AD00C093AC009C
:100A100088CF80912001806880932001D0932901A4
:100A2000C09328017ECF80912001806280932001B5
:100A3000D0932B01C0932A0174CF8091200188604C
:100A400080932001D0932D01C0932C016ACFC03830
:100A5000D1050CF03ECF33CF2FB7F8946091E3026D
:100A60007091E4028091E5029091E6022FBF089513
:100A70000895AF92BF92CF92DF92EF92FF920F93C1
:100A80001F93CF93DF936C017B018B01040F151F24
:100A9000EB015E01AE18BF08C017D10759F069918C
:100AA000D601ED91FC910190F081E02DC6011995E0
:100AB000892B79F7C501DF91CF911F910F91FF909D
:100AC000EF90DF90CF90BF90AF900895FC01538DD1
:100AD000448D252F30E0842F90E0821B930B541718
:100AE00010F0CF96089501970895FC01918D828DA5
:100AF000981761F0A28DAE0FBF2FB11D5D968C913E
:100B0000928D9F5F9F73928F90E008958FEF9FEF7C
:100B100008950F931F930E942C0560934A037093CE
:100B20004B0380934C0390934D0382E493E00E9427
:100B3000750597FF1DC00E942C0500914A03109176
:100B40004B0320914C0330914D03601B710B820BC2
:100B5000930B009146031091470320914803309175
:100B600049036017710782079307F8F28FEF9FEF31
:100B70001F910F910895FC01918D828D981731F08E
:100B8000828DE80FF11D858D90E008958FEF9FEF26
:100B90000895FC01918D228D892F90E0805C9F4FFC
:100BA000821B91098F739927089582E493E00E9434
:100BB000C90521E0892B09F420E0822F0895FC016A
:100BC000A48DA80FB92FB11DA35ABF4F2C91848DAE
:100BD00090E001968F739927848FA689B7892C930B
:100BE000A089B1898C91837080648C93938D848D5E
:100BF000981306C00288F389E02D80818F7D808361
:100C00000895EF92FF920F931F93CF93DF93EC0120
:100C100081E0888F9B8D8C8D98131AC0E889F989A3
:100C2000808185FF15C09FB7F894EE89FF896083A6
:100C3000E889F98980818370806480839FBF81E027
:100C400090E0DF91CF911F910F91FF90EF90089569
:100C5000F62E0B8D10E00F5F1F4F0F731127E02E44
:100C60008C8D8E110CC00FB607FCFACFE889F9897C
:100C7000808185FFF5CFCE010E94DF05F1CFEB8D9E
:100C8000EC0FFD2FF11DE35AFF4FF0829FB7F89450
:100C90000B8FEA89FB8980818062CFCFCF93DF936E
:100CA000EC01888D8823B9F0AA89BB89E889F98984
:100CB0008C9185FD03C0808186FD0DC00FB607FCB9
:100CC000F7CF8C9185FFF2CF808185FFEDCFCE01EC
:100CD0000E94DF05E9CFDF91CF91089580E090E099
:100CE000892B29F00E94D50581110E94000080E027
:100CF00090E0892B49F080E090E0892B29F00E9458
:100D0000000081110E94000080E090E0892B49F0F2
:100D100080E090E0892B29F00E94000081110E9460
:100D2000000080E090E0892B49F080E090E0892B82
:100D300029F00E94000081110C9400000895CF92C8
:100D4000DF92EF92FF920F931F93CF93DF938C016B
:100D5000EB017C01EE0CFF1CF701E15EFD4F808191
:100D60000E94CD036C01F701E95EFD4F80810E9476
:100D7000CD030D7F0130110559F4C816D90659F479
:100D800088819981AA81BB810196A11DB11D0AC0EC
:100D9000C816D906A9F788819981AA81BB810197D4
:100DA000A109B10988839983AA83BB83DF91CF917D
:100DB0001F910F91FF90EF90DF90CF9008956EEA12
:100DC00072E090E080E00C949F066AEA72E081E0B5
:100DD00090E00C949F0666EA72E082E090E00C944A
:100DE0009F0662EA72E083E090E00C949F064F92C7
:100DF0005F926F927F928F929F92AF92BF92CF92AB
:100E0000DF92EF92FF920F931F93CF93DF93CDB7B3
:100E1000DEB74C0127013801DC015F965C934E93ED
:100E20005E975D967C936E935C9791963C932E9320
:100E30009097DA961C92FC0112AA13AA14AA15AA7A
:100E400080E090E0AFE7B3E486AB97ABA0AFB1AF83
:100E500084E690E0A0E0B0E086A797A7A0ABB1AB96
:100E6000118E108E20E030E0A901C801B7010E9468
:100E70005F1C87FD53C020E030E0A901C601B50129
:100E80000E945F1C87FD4AC020E030E0A9016C8908
:100E90007D898E899F890E945F1C87FD3FC081E00C
:100EA00090E0D4015B969C938E935A97DB968C933B
:100EB000DB97F40140825182628273821496AD9274
:100EC000BD92CD92DC9217978C899D89AE89BF899E
:100ED00080879187A287B387448655866686778602
:100EE0002DEC3CEC4CEC5DE3C601B5010E94C51C49
:100EF000F401608B718B828B938B2DEC3CEC4CEC72
:100F00005DE36C897D898E899F890E94371ED4019B
:100F100054966D937D938D939C9357970E942C05C7
:100F2000F401C6A4D7A4E0A8F1A86C197D098E0924
:100F30009F0962A373A384A395A3DF91CF911F910F
:100F40000F91FF90EF90DF90CF90BF90AF909F9068
:100F50008F907F906F905F904F900895FC0101906B
:100F60000020E9F73197AF01481B590BBC0182E41F
:100F700093E00C9439058F929F92AF92BF92CF92DB
:100F8000DF92EF92FF920F931F93CF93DF93CDB732
:100F9000DEB7A1970FB6F894DEBF0FBECDBF6B01D1
:100FA0007C01F7FE41C06DE282E493E00E940106FD
:100FB0008C0122273327A9012C193D094E095F090D
:100FC00019A2CE0181967C019AE0892E912CA12C48
:100FD000B12CCA01B901A50194010E94A01D605D58
:100FE000F70162937F01211531054105510589F70C
:100FF00090E080E0309719F0CF010E94AE07800F9B
:10100000911FA1960FB6F894DEBF0FBECDBFDF9142
:10101000CF911F910F91FF90EF90DF90CF90BF90F5
:10102000AF909F908F900895AC019B0119A28E0103
:101030000F5D1F4F8AE0C82ED12CE12CF12CCA0184
:10104000B901A70196010E94A01D605DF80162939D
:101050008F01211531054105510589F790E080E0A8
:10106000309779F2CF010E94AE07CBCF0F931F9339
:10107000CF93DF93EC0188819981009759F02A8101
:101080003B812617370730F081E0DF91CF911F9128
:101090000F9108958B016F5F7F4F0E94E41E0097B0
:1010A00059F0998388831B830A832C813D81232BEC
:1010B00059F7FC011082E8CF80E0E7CF6091AE02E3
:1010C0007091AF028091B0029091B1020E94BB0773
:1010D00081E592E00E94AE076091AA027091AB0296
:1010E0008091AC029091AD020E94BB0781E592E035
:1010F0000E94AE076091A6027091A7028091A8029B
:101100009091A9020E94BB0781E592E00E94AE0780
:101110006091A2027091A3028091A4029091A50215
:101120000E94BB0783E592E00E94AE070E94CB11AC
:1011300060E08FE190E00E944A100E9499128111B4
:10114000BDCF0E94D111BACF2F923F924F925F92A2
:101150006F927F928F929F92AF92BF92CF92DF92C7
:10116000EF92FF920F931F93CF93DF9300D01F92C4
:10117000CDB7DEB7E0915203F091530382E0808354
:10118000E0914E03F0914F031082E0915003F091F3
:1011900051038FEC808310925A03E0915603F09133
:1011A000570386E08083E0915403F09155038081DA
:1011B00080618083E0915403F091550380818860C1
:1011C0008083E0915403F09155038081806880838F
:1011D000E0915403F091550380818F7D808307E275
:1011E00012E08FE1282E82E0382E27E132E03A83A8
:1011F00029838FE094E09C838B8361E0D8018C91FC
:101200000E94240461E0F80182810E94240461E0CC
:10121000D80114968C910E942404F1018081F2E09F
:101220002F0E311C60E00E942404A981BA818C91A8
:101230001296BA83A98360E00E942404EB81FC81AA
:1012400082ADE68CF78C811139C0D7018D909D90CD
:10125000AD90BC9086A297A2A0A6B1A6048CF58DF5
:10126000E02D80819181A281B381EB81FC8182A7F5
:1012700093A7A4A7B5A746A857A860AC71ACA301D3
:101280009201C501B4010E94DF1E18164CF4AB8117
:10129000BC8196964D925D926D927C9299970EC00C
:1012A000EB81FC8142A853A864A875A8A301920110
:1012B000C501B4010E945F1C87FDE9CF81E0EB818D
:1012C000FC8182AF80E090E0AFE7B3EC82AB93AB00
:1012D000A4ABB5AB80E090E0AFE7B3E486AB97ABEF
:1012E000A0AFB1AFD7018D909D90AD90BC9020E0A4
:1012F00030E04FE753E4C501B4010E94DF1E181629
:1013000034F580E090E0AFE7B3E4F70180839183A8
:10131000A283B383AB81BC819696CD90DD90ED9096
:10132000FC909997D6968D909D90AD90BC90D99752
:10133000A5019401C701B6010E94DF1E1816B4F47E
:10134000EB81FC8186A297A2A0A6B1A61FC020E0D7
:1013500030E04FE753ECC501B4010E945F1C87FFEA
:10136000D9CF80E090E0AFE7B3ECCFCFAB81BC81C9
:10137000D2968D909D90AD90BC90D597A50194018B
:10138000C701B6010E945F1C87FDDACF0A5F1F4FBD
:101390002B813C81245C3F4F3C832B8332E00F3315
:1013A000130709F02ACF8FED96E090930A028093FD
:1013B0000902809169008F7C806180936900EA9ABC
:1013C00085EE96E090930C0280930B028091690069
:1013D0008F73806480936900EB9A8BEE96E0909314
:1013E00002028093010280916A008C7F8160809369
:1013F0006A00EC9A81EF96E09093040280930302D6
:1014000080916A00837F846080936A00ED9A04EB88
:1014100012E021E040E850E063E672E085E39AE004
:101420000E94671602EB12E021E040E850E064E71A
:1014300072E08EE598E00E9467160F900F900F9073
:101440000F90DF91CF911F910F91FF90EF90DF9060
:10145000CF90BF90AF909F908F907F906F905F9054
:101460004F903F902F900C949217CF93DF93CDB76E
:10147000DEB7A3970FB6F894DEBF0FBECDBF82E4F0
:1014800093E00E94C905181619060CF0C3C21A820F
:1014900019821C821B821E821D8270E060E0CE01D8
:1014A00001960E94360829813A8181112EC02115AA
:1014B000310519F0C9010E94281A1A8219821E8268
:1014C0001D821C821B820E94890597FD26C08A30DE
:1014D000910519F18F8318860D811E810F5F1F4FB3
:1014E000B801CE0101960E943608882361F3298154
:1014F0003A818D819E81BE01695F7F4F820F931F6C
:101500000E94D51F1E830D83DECF1E821D8265E5DE
:1015100072E0C9010E94D51FD6CF61E572E08981D2
:101520009A810E94B51A0E94B11A6093DF037093EA
:10153000E0038093E1039093E20361E572E090E0C1
:1015400080E00E94B51A0E94B11A6093E303709381
:10155000E4038093E5039093E60361E572E090E095
:1015600080E00E94B51A0E94B11A6093E70370935D
:10157000E8038093E9039093EA0361E572E090E069
:1015800080E00E94B51A0E94B11A6093EB03709339
:10159000EC038093ED039093EE032FEE33E03C8B4E
:1015A0002B8B47E252E05E874D879FE0292E94E027
:1015B000392E82E892E0988B8F87A2E9B2E0BA8B4D
:1015C000A98BEFEFF3E0FBA3EAA31C861B860E9426
:1015D0002C052B013C012B853C852230310509F47B
:1015E000C1C12330310509F4C6C12130310509F4E8
:1015F000B0C1C090AE02D090AF02E090B002F090C7
:10160000B102E989FA8980819181A281B381A30124
:101610009201281B390B4A0B5B0BCA01B9010E94CE
:10162000641C20E030E04AE754E40E94371E4B017E
:101630005C0120E030E0A9010E945F1C181644F014
:101640008FE6882E82E1982E83E8A82E8AE3B82EB2
:10165000EF85F88980819181A281B381A7019601EC
:10166000281B390B4A0B5B0BCA01B901C082D1821E
:10167000E282F382E989FA894192519261927192F0
:10168000FA8BE98B0E94661C20E030E044EB54E4C6
:101690000E94371EA50194010E94371E9B01AC01D8
:1016A0000E94CB1D2BED3FE049E450E40E94C51C95
:1016B000AAA1BBA16D937D938D939D93BBA3AAA378
:1016C000F10182AD882309F406C10E942C056D8BBF
:1016D0007E8B8F8B988FF10182A193A1A4A1B5A1DC
:1016E0004D895E896F89788D481B590B6A0B7B0B7E
:1016F00086A597A5A0A9B1A9481759076A077B072E
:1017000008F4E9C0048CF58DE02D408051806280A2
:101710007380D1019096ED91FC91A30192016081BB
:101720007181828193810E94CA1D6B017C01F1014C
:1017300022A533A544A555A5C301B2010E94CA1D27
:10174000698F7A8F8B8F9C8FD10150962D913D910F
:101750004D915C915397C701B6010E94C51CF101E0
:1017600026A137A140A551A50E94CB1D4B015C01CC
:10177000D10196968D929D92AD92BC929997DB96EF
:10178000BC91BD8FB11118C0F10124853585468506
:101790005785698D7A8D8B8D9C8D0E94C51C9B0110
:1017A000AC01C501B4010E94CA1DD10196966D938A
:1017B0007D938D939C939997D10196962D913D9110
:1017C0004D915C9199972E8F3F8F48A359A3D69640
:1017D000BC91B987F101F7A9FA87D101D8960C918C
:1017E000D897D9961C9129853F2FA8016E8D7F8DA2
:1017F00088A199A10E94DF1E18160CF0C5C089852A
:101800009A85D801F10186A397A3A0A7B1A7FD8D62
:10181000FF2309F4D0C0D1011C962D913D914D912B
:101820005C911F97C701B6010E94C51C6B017C012A
:10183000F1012489358946895789698D7A8D8B8D87
:101840009C8D0E94C51C9B01AC01D10196966D91A7
:101850007D918D919C9199970E94CA1DA701960137
:101860000E94CB1D6B017C019B01AC0169857A85CF
:10187000C8010E945F1C87FD16C0F101F2A9F9871B
:10188000D101D396BC91BA87F10104A915A9298584
:101890003B2FA801B601C7010E945F1C87FD03C052
:1018A000C986DA868701D1015E96ED91FC91898522
:1018B0009A85D80180839183A283B383F10142A6E4
:1018C00053A664A675A62D893E894F89588D22A3FB
:1018D00033A344A355A3EB89FC8981909190A190F7
:1018E000B190FC8BEB8BAD85BE85DC901296EC90B5
:1018F00012971496FC9020E030E04FE753ECC501BE
:10190000B4010E945F1C87FD93C020E030E04FE7E8
:1019100053E4C501B4010E94DF1E18160CF44FC039
:10192000C501B4010E94A91E8B01161617060CF4FE
:1019300048C0672B09F47FC061E08E2D0E94F6033A
:1019400060E08F2D0E94F60366277727601B710BDE
:1019500041C0C090AA02D090AB02E090AC02F090DF
:10196000AD024FCEC090A602D090A702E090A80290
:10197000F090A90246CEC090A202D090A302E090BF
:10198000A402F090A5023DCED101D2968D909D90FB
:10199000AD90BC90D597A50194016E8D7F8D88A1E7
:1019A00099A10E945F1C87FF32CFF10186A297A206
:1019B000A0A6B1A62CCFC12CD12C760139CF0FEF28
:1019C00010E060E08E2D0E94F60361E08F2D0E94F2
:1019D000F603B8018D2D0E945504EB85FC853196E8
:1019E000FC87EB872D853E852A5F3F4F3E872D87FD
:1019F0003CE3230E311C4F8558894C5F5F4F588B59
:101A00004F87349709F0E3CD89819A81009711F0CF
:101A10000E94281A0E94CB1160E086E090E00E94AC
:101A20004A100E94991281112ACD0E94D11127CD0E
:101A300001E01FEF81CF60E08D2D0E94F60360E092
:101A40008E2D0E94F60360E08F2D0E94F603C5CF15
:101A50001F920F920FB60F9211242F933F938F93E3
:101A60009F93AF93BF938091E3029091E402A09182
:101A7000E502B091E6023091E20223E0230F2D3718
:101A800058F50196A11DB11D2093E2028093E30257
:101A90009093E402A093E502B093E6028091DE0207
:101AA0009091DF02A091E002B091E1020196A11DA8
:101AB000B11D8093DE029093DF02A093E002B09309
:101AC000E102BF91AF919F918F913F912F910F9024
:101AD0000FBE0F901F90189526E8230F0296A11DA8
:101AE000B11DD2CF1F920F920FB60F9211240BB6D9
:101AF0000F922F933F934F935F936F937F938F93A7
:101B00009F93AF93BF93EF93FF93E0910F02F091F8
:101B100010021995FF91EF91BF91AF919F918F9115
:101B20007F916F915F914F913F912F910F900BBEDD
:101B30000F900FBE0F901F9018951F920F920FB627
:101B40000F9211240BB60F922F933F934F935F93F5
:101B50006F937F938F939F93AF93BF93EF93FF9375
:101B6000E0910D02F0910E021995FF91EF91BF9156
:101B7000AF919F918F917F916F915F914F913F9125
:101B80002F910F900BBE0F900FBE0F901F901895C6
:101B90001F920F920FB60F9211240BB60F922F9334
:101BA0003F934F935F936F937F938F939F93AF93E5
:101BB000BF93EF93FF93E0910302F0910402199514
:101BC000FF91EF91BF91AF919F918F917F916F9115
:101BD0005F914F913F912F910F900BBE0F900FBED1
:101BE0000F901F9018951F920F920FB60F9211240D
:101BF0000BB60F922F933F934F935F936F937F9307
:101C00008F939F93AF93BF93EF93FF93E091010264
:101C1000F09102021995FF91EF91BF91AF919F91C1
:101C20008F917F916F915F914F913F912F910F9085
:101C30000BBE0F900FBE0F901F9018951F920F9222
:101C40000FB60F9211240BB60F922F933F934F9321
:101C50005F936F937F938F939F93AF93BF93EF9314
:101C6000FF93E0910B02F0910C021995FF91EF9117
:101C7000BF91AF919F918F917F916F915F914F91A4
:101C80003F912F910F900BBE0F900FBE0F901F90A2
:101C900018951F920F920FB60F9211240BB60F9248
:101CA0002F933F934F935F936F937F938F939F9364
:101CB000AF93BF93EF93FF93E0910902F0910A0273
:101CC0001995FF91EF91BF91AF919F918F917F9166
:101CD0006F915F914F913F912F910F900BBE0F909D
:101CE0000FBE0F901F9018951F920F920FB60F9274
:101CF00011240BB60F922F933F934F935F936F93E3
:101D00007F938F939F93AF93BF93EF93FF93E09154
:101D10000702F09108021995FF91EF91BF91AF91E1
:101D20009F918F917F916F915F914F913F912F91F3
:101D30000F900BBE0F900FBE0F901F9018951F9223
:101D40000F920FB60F9211240BB60F922F933F9361
:101D50004F935F936F937F938F939F93AF93BF93B3
:101D6000EF93FF93E0910502F09106021995FF9120
:101D7000EF91BF91AF919F918F917F916F915F9103
:101D80004F913F912F910F900BBE0F900FBE0F9070
:101D90001F9018951F920F920FB60F9211240BB639
:101DA0000F922F933F934F935F936F937F938F93F4
:101DB0009F93AF93BF93EF93FF9382E493E00E94CE
:101DC000DF05FF91EF91BF91AF919F918F917F912F
:101DD0006F915F914F913F912F910F900BBE0F909C
:101DE0000FBE0F901F9018951F920F920FB60F9273
:101DF00011240BB60F922F938F939F93EF93FF9322
:101E0000E0915203F09153038081E0915803F091E7
:101E1000590382FD1DC0908180915B038F5F8F739A
:101E200020915C03821741F0E0915B03F0E0EE5BF0
:101E3000FC4F958F80935B03FF91EF919F918F9162
:101E40002F910F900BBE0F900FBE0F901F90189503
:101E50008081F2CF0FB6F8940F92FC01928D0F9013
:101E60000FBE81E0911180E00895E091E902F091C8
:101E7000EA028081811107C08FEF9FEF9093D60215
:101E80008093D5020895E091E902F091EA0205807D
:101E9000F681E02D80819181F1CFCF93DF93FC011A
:101EA000A085B1858281938124813581EC013D83B8
:101EB0002C83C481D5819B838A8311968D919C91BB
:101EC00012978E179F0721F41296DC93CE931197E9
:101ED000118610868C9181508C93DF91CF9108955B
:101EE0000F931F93CF93DF938C01FB01808191812E
:101EF000D80113968F3F9807F1F4E801AF81B885B8
:101F000012968D919C91139793838283EC01FD83AC
:101F1000EC83B583A4831396FC93EE9312971187F9
:101F20000087F80180818F5F8083DF91CF911F91BF
:101F30000F910895D90112962D913C911397E901C3
:101F40004881598184179507A8F7DACFFC010396D9
:101F5000928381832FEF3FEF34832383968385839E
:101F60009087878310820895FC0173836283918731
:101F700080874617570790F0421B530B8485958541
:101F800048175907C8F4BF016E5F7F4F8091D10297
:101F90009091D2020E94700F80E00895421753077B
:101FA00018F46217730740F4BF016E5F7F4F809192
:101FB000D3029091D402EECF81E00895EF92FF9288
:101FC0000F931F93CF93DF93EC018B017A016C8504
:101FD0007D85600F711F9801A701CE010E94B40F8B
:101FE000811107C0DF91CF911F910F91FF90EF906A
:101FF00008958C859D85080F191FE889F989CE0100
:102000001995E5CFEF92FF920F931F93CF93DF9334
:102010008C017B01E091D302F091D4020580F6811E
:10202000E02DC681D781CE0102960E944D0F8A898C
:1020300082FF0FC0A701B801CE010E94DE0FE88920
:10204000F989CE01DF91CF911F910F91FF90EF9011
:1020500019948E7F8A8BF3CFE091D302F091D40252
:10206000808181110DC08091D1029091D202909314
:10207000D4028093D302F093D202E093D102089568
:102080000580F681E02D6FEF7FEF808191810E94C6
:102090000210E2CFBF92CF92DF92EF92FF920F93A6
:1020A0001F93CF93DF93EC01B62EC090D802D0904F
:1020B000D9020091E9021091EA02E090E702F09063
:1020C000E80280913F039091400302960E944D0FD9
:1020D000CF3FDC0709F042C0BB2009F43FC0E091CC
:1020E000EC02F091ED02A0913F03B09140031596F0
:1020F000FC93EE931497A0913F03B0914003848129
:10210000958117969C938E93169780913F0390919B
:102110004003A481B581029613969C938E931297E7
:1021200080913F0390914003029695838483E091D0
:102130003F03F09140038BEE92E09387828780917A
:10214000EB028F5F8093EB02DF91CF911F910F9194
:10215000FF90EF90DF90CF90BF900895CC0DDD1DE4
:10216000E0913F03F0914003D383C28360913F032A
:10217000709140036E5F7F4FCC15DD0560F4C701A1
:10218000DF91CF911F910F91FF90EF90DF90CF9053
:10219000BF900C94700FC8010E94700F8091D502FF
:1021A0009091D602C817D90778F6D093D602C0937B
:1021B000D502CACFCF93DF93DC011596ED91FC9148
:1021C0000680F781E02DA489B589868597852089C9
:1021D0003189EC013D832C83C089D1899B838A831B
:1021E000CF010C9611962D913C9112972817390723
:1021F00021F41296DC93CE931197158A148A2C91B0
:1022000021502C932091DC02211157C0A285B38567
:102210008481958126813781EC013D832C83C681A1
:10222000D7819B838A83CF01029611962D913C9191
:1022300012972817390721F41296DC93CE93119741
:10224000138612862C9121502C93C68920913C0331
:102250002C1710F4C0933C0329E02C9FE0011124BB
:10226000C85EDC4F0980DA81C02DD583C4834C81E0
:102270005D8157834683AC81BD8113969C938E9379
:1022800012979D838C83A689A29FD0011124A85EFA
:10229000BC4FB387A2878C918F5F8C93A0913F0333
:1022A000B0914003968956968C91891730F581E05C
:1022B0008093DD02DF91CF910895A091FE02B0914D
:1022C000FF02B787A68714962D913C911597318B05
:1022D000208B1496CD91DC9115979B838A8315965C
:1022E0009C938E9314978DEF92E0958B848B8091C5
:1022F000FD028F5F8093FD02D1CF80E0DBCFEF92B4
:10230000FF920F931F93CF93DF93EC010FB6F894D6
:102310000F921E8D7C0181E1E80EF11C01E0111687
:10232000D4F08FEF8E8F0F900FBE0FB6F8940F92F0
:102330001D8D7E0188E0E80EF11C01E01116B4F05D
:102340008FEF8D8F0F900FBEDF91CF911F910F9167
:10235000FF90EF9008958989882319F3C7010E949F
:10236000DA1081110093DD021150D9CF88858823BE
:1023700039F3C7010E94DA1081110093DD02115078
:10238000DDCF0FB6F8940F928091D8029091D902C8
:102390000F900FBE08958091DC028F5F8093DC0266
:1023A00008950F920FB6F8940F920BB60F920CB6D9
:1023B0000F921F9211242F923F924F925F926F9231
:1023C0007F928F929F92AF92BF92CF92DF92EF92C5
:1023D000FF920F931F932F933F934F935F936F93AE
:1023E0007F938F939F93AF93BF93CF93DF93EF939D
:1023F000FF93A0913F03B09140030DB60D920EB62E
:102400000D928091DC02882321F081E08093DD022F
:1024100061C01092DD02A0913F03B0914003E091B2
:102420003F03F09140032D913C918789908D821755
:102430009307A8F080913F039091400380913F0360
:1024400090914003279A2F9A2FEF87EA91E6215027
:1024500080409040E1F700C000001F9AF5CF209126
:102460003C0389E001C02150422F50E0849FF001DD
:10247000859FF00D1124E85EFC4F9081992399F31C
:10248000A181B28112966D917C9172836183289FA4
:10249000C0011124855E9C4F6817790721F485815E
:1024A00096819283818389E0849FF001859FF00D5E
:1024B0001124E85EFC4F0180F281E02D8681978136
:1024C0009093400380933F0320933C0380913F030C
:1024D00090914003A0913F03B0914003CD91CDBFB7
:1024E000DD91DEBFFF91EF91DF91CF91BF91AF9171
:1024F0009F918F917F916F915F914F913F912F911C
:102500001F910F91FF90EF90DF90CF90BF90AF9011
:102510009F908F907F906F905F904F903F902F9003
:102520001F900F900CBE0F900BBE0F900FBE0F9020
:1025300008958F929F92BF92CF92DF92EF92FF9277
:102540000F931F93CF93DF930FB6F8940F92809160
:10255000DC0281508093DC028091DC02882379F0D8
:1025600080E00F900FBEDF91CF911F910F91FF90F0
:10257000EF90DF90CF90BF909F908F9008958091C3
:102580004103882369F3E0900203F0900303F0E035
:10259000E0E039E041E08091FD0281115EC0EF2B67
:1025A00011F00E94350FE090DA02F090DB02E114A6
:1025B000F10409F47DC189E0D82ECC24C3940FEF37
:1025C0001FEF8091DC02811161C1C091D802D091CE
:1025D000D9024E018FEF881A980A9092D902809200
:1025E000D80281149104B9F48091E9029091EA0231
:1025F0002091E7023091E8023093EA022093E90249
:102600009093E8028093E7028091D7028F5F8093D6
:10261000D7020E94350F8091D5029091D602B12C3D
:102620008816990608F026C1E0913F03F091400317
:10263000E689DE9EF0011124E85EFC4F8081823045
:1026400010F0BB24B3948091DD02811103C0BB2044
:1026500009F425C1C092DD0222C1D7011696ED9181
:10266000FC91A489B5896685778580899189EB017C
:102670009D838C8380899189EC017B836A83BF0170
:10268000645F7F4F11960D911C91129706171707E3
:1026900021F412969C938E931197158A148A8C912B
:1026A00081508C93A285B3858481958166817781E1
:1026B000EC017D836C8366817781EB019B838A8348
:1026C000CF01029611960D911C91129708171907C8
:1026D00021F412967C936E931197138612862C9197
:1026E00021502C93A68920913C032A1710F4A09323
:1026F0003C033A9FD0011124A85EBC4F11960D9067
:10270000BC91A02DB583A48314966D917C911597EF
:102710007783668314966D917C911597EB019B836B
:102720008A8315969C938E9314979689939FD001D4
:102730001124A85EBC4FB387A2878C918F5F8C93C6
:10274000A0913F03B091400356968C91891708F0F1
:1027500022CF4093DD021FCFE091E902F091EA021F
:102760000580F681E02D0680F781E02D828193813E
:102770008816990628F49093D6028093D50254CFF8
:10278000C285D3858481958126813781DC011596A8
:102790003C932E93149726813781D90113969C93ED
:1027A0008E931297CF01029649815A814817590793
:1027B00011F43A83298313861286288121502883B5
:1027C000A489B5891097F9F0268537854089518904
:1027D000E9015D834C8340895189EA013B832A8367
:1027E00011966D917C9112979F01245F3F4F621764
:1027F000730721F412965C934E931197158A148AED
:102800002C9121502C93A68920913C032A1710F477
:10281000A0933C03DA9ED0011124A85EBC4F119610
:102820000D90BC91A02DB583A48314962D913C915D
:1028300015973783268314962D913C911597E901BE
:102840009B838A8315969C938E93149796899D9D5E
:10285000D0011124A85EBC4FB387A2878C918F5FF3
:102860008C93E0913F03F09140038689891710F41F
:10287000BB24B394E091E902F091EA0280818111D6
:102880006BCF1093D6020093D502CECE8091DA02A0
:102890009091DB0201969093DB028093DA02D1E003
:1028A000ED1AF10809F08DCE1092DB021092DA02D7
:1028B0008091DD02882309F453CE80913F039091EB
:1028C00040030E94D11181E04CCE0F920FB6F894D4
:1028D0000F920BB60F920CB60F921F9211242F92EB
:1028E0003F924F925F926F927F928F929F92AF92A0
:1028F000BF92CF92DF92EF92FF920F931F932F938D
:102900003F934F935F936F937F938F939F93AF9377
:10291000BF93CF93DF93EF93FF93A0913F03B091C9
:1029200040030DB60D920EB60D9213BE8091DC02DF
:102930008111F9C08091D8029091D90201969093AB
:10294000D9028093D802009781F52091E902309155
:10295000EA024091E7025091E8025093EA02409364
:10296000E9023093E8022093E7022091D7022F5F1B
:102970002093D702E091E902F091EA02208121112F
:1029800007C02FEF3FEF3093D6022093D5020DC042
:10299000E091E902F091EA020580F681E02D2081C4
:1029A00031813093D6022093D5022091D502309107
:1029B000D6028217930710F420E0A1C020E039E08E
:1029C000D32EE091E902F091EA023081311107C083
:1029D0008FEF9FEF9093D6028093D50290C0E09145
:1029E000E902F091EA020580F681E02D0680F78188
:1029F000E02D428153818417950728F45093D60225
:102A00004093D5027CC0A285B385448155816681FF
:102A10007781EA017D836C8366817781EB015B833B
:102A20004A83AF014E5F5F4F11960D911C91129733
:102A30000417150721F412967C936E931197138651
:102A400012863C9131503C93A489B5891097F9F0D6
:102A50006685778500891189EB011D830C830089C8
:102A60001189E8017B836A831196ED90FC9012979F
:102A7000BF01645F7F4FE616F70621F412961C93A0
:102A80000E931197158A148A3C9131503C93A68974
:102A900030913C033A1710F4A0933C03DA9ED00126
:102AA0001124A85EBC4F11960D90BC91A02DB5834A
:102AB000A48314966D917C91159777836683149601
:102AC0006D917C911597EB015B834A8315965C931E
:102AD0004E93149746894D9DD0011124A85EBC4F9A
:102AE000B387A2873C913F5F3C93E0913F03F09115
:102AF00040033689341708F064CF21E062CFE091BB
:102B00003F03F0914003E689D9E0ED9FF0011124E5
:102B1000E85EFC4F8081823008F021E08091DD0288
:102B200081110EC00AC08091DA029091DB020196F9
:102B30009093DB028093DA026CC0222309F469C00F
:102B40008091DC02882321F081E08093DD0261C066
:102B50001092DD02A0913F03B0914003E0913F034A
:102B6000F09140032D913C918789908D82179307B6
:102B7000A8F080913F039091400380913F03909192
:102B80004003279A2F9A2FEF87EA91E62150804041
:102B90009040E1F700C000001F9AF5CF20913C0360
:102BA00089E001C02150422F50E0849FF001859FB1
:102BB000F00D1124E85EFC4F9081992399F3A181D7
:102BC000B28112966D917C9172836183289FC001BE
:102BD0001124855E9C4F6817790721F485819681C1
:102BE0009283818389E0849FF001859FF00D1124F9
:102BF000E85EFC4F0180F281E02D86819781909301
:102C0000400380933F0320933C0380913F039091C6
:102C10004003A0913F03B0914003CD91CDBFDD9122
:102C2000DEBFFF91EF91DF91CF91BF91AF919F9167
:102C30008F917F916F915F914F913F912F911F9154
:102C40000F91FF90EF90DF90CF90BF90AF909F904B
:102C50008F907F906F905F904F903F902F901F903C
:102C60000F900CBE0F900BBE0F900FBE0F900895EB
:102C7000CF93DF93009751F0EC010E94CB11CE016E
:102C80000E94281ADF91CF910C949912DF91CF9175
:102C90000895CF93DF93EC010E94CB11CE010E94E7
:102CA0008C19EC010E949912209769F4279A2F9AA7
:102CB0002FEF80E792E0215080409040E1F700C084
:102CC00000001F9AF5CFCE01DF91CF9108957F923A
:102CD0008F929F92AF92BF92CF92DF92EF92FF922C
:102CE0000F931F93CF93DF93982EA92E762E872EC6
:102CF0007A01B22ECA010E9449166C01892B09F48F
:102D0000F0C080E390E00E944916EC01892B09F4A1
:102D1000E5C080E3DE011D928A95E9F7D88ECF8A5F
:102D2000A70165EA70E0C6010E94CE1FB1E0EB1A70
:102D3000F108EF89F88DEE0DFF1D672D782DCE017E
:102D400049969B01205F3F4FDB014D91BD01DC01A6
:102D50004D93CD01AB0141505109DA014C9144230F
:102D600019F06217730781F718A6BE8AB9A61B86E9
:102D70001A861D8A1C8AD987C88784E090E08B193F
:102D800091099D878C87DB8BCA8B9082DF0111971D
:102D9000AC9211971C9211971C92119780E88C931A
:102DA00011971C9211971C9211971C9257971C9285
:102DB00011971C92B697F983E883F801D183C083F9
:102DC0000FB6F8940F92809141038F5F8093410377
:102DD00080913F0390914003892B09F091C0D093DB
:102DE0004003C0933F0380914103813081F588E126
:102DF00093E00E94A60F81E293E00E94A60F8AE270
:102E000093E00E94A60F83E393E00E94A60F8FE059
:102E100093E00E94A60F86E093E00E94A60F8DEF3C
:102E200092E00E94A60F84EF92E00E94A60F8BEE24
:102E300092E00E94A60F8FE093E09093EA028093C5
:102E4000E90286E093E09093E8028093E7028091A4
:102E50003D038F5F80933D03AE8980913C038A17C9
:102E600010F4A0933C0329E02A9FD0011124A85E0E
:102E7000BC4F11960D90BC91A02DBD83AC831496D0
:102E80008D919C9115979F838E831496ED91FC9163
:102E90001597CE0102969383828315969C938E9309
:102EA0001497EE89E29FF0011124E85EFC4FFB8746
:102EB000EA8780818F5F80830F900FBE80913E03F1
:102EC000882351F0E0913F03F091400396898E8969
:102ED000981710F40E94D11181E004C0C6010E942D
:102EE00038168FEFDF91CF911F910F91FF90EF90E8
:102EF000DF90CF90BF90AF909F908F907F9008957C
:102F000080913E038111A3CFE0913F03F0914003F4
:102F100096898E89891708F49ACFD0934003C0937D
:102F20003F0395CF0F931F93CF93DF93CDB7DEB7BA
:102F300060970FB6F894DEBF0FBECDBFA6E5B2E036
:102F4000FE01319626E632E0BF018D918193882300
:102F500019F02A173B07C9F707EB12E020E040EC15
:102F600050E08EE891E00E946716882309F4BBC008
:102F7000813009F0B8C00FB6F8940F928091CF025B
:102F80009091D002892B09F050C082EC92E00E940F
:102F9000A60F89EB92E00E94A60F82EC92E090933C
:102FA000D4028093D30289EB92E09093D202809373
:102FB000D10281E590E00E9449168C01009789F1C9
:102FC0004F96F801918380838AE0838F85E0848F18
:102FD0000FB6F8940F9280819181238D448DBC01AE
:102FE000249F600D711D112475836483128E938359
:102FF00082832150330B429FB001439F700D1124F7
:10300000860F971F978386838FEF858F868FC801E2
:1030100008960E94A60FC80141960E94A60F0F9025
:103020000FBE1093D0020093CF020F900FBE80917D
:10303000CF029091D002892B09F455C00BEC12E01D
:1030400023E04CE550E06BE572E08CEB91E00E94F0
:103050006716813009F047C0F8942FEF3FEF3093A7
:10306000D6022093D50280933E031092D90210928B
:10307000D802A89588E190EC0FB6F894A8958093B3
:1030800060000FBE90936000A0913F03B091400399
:10309000CD91CDBFDD91DEBFFF91EF91DF91CF915B
:1030A000BF91AF919F918F917F916F915F914F9160
:1030B0003F912F911F910F91FF90EF90DF90CF9054
:1030C000BF90AF909F908F907F906F905F904F9048
:1030D0003F902F901F900F900CBE0F900BBE0F9043
:1030E0000FBE0F9008958091000260960FB6F8947D
:1030F000DEBF0FBECDBFDF91CF911F910F9108951D
:103100000E9465141895AF92BF92CF92DF92EF9212
:10311000FF920F931F93E2E4F3E01382128288EE92
:1031200093E0A0E0B0E084839583A683B78383E433
:1031300092E09183808385EC90E09587848784EC8E
:1031400090E09787868780EC90E0918B808B81EC74
:1031500090E0938B828B82EC90E0958B848B86EC55
:1031600090E0978B868B118E128E138E148E1F9289
:103170001F921F921F92A12CB12C6501E12CF12C02
:1031800000E81FE32FED33E04FEE53E06FEF73E005
:103190008FE094E00E94F7061F921F921F921F92E9
:1031A00023EE33E043EF53E063E074E08BE494E01C
:1031B0000E94F7061F921F921F921F9227EE33E084
:1031C00047EF53E067E074E087E894E00E94F70679
:1031D0001F921F921F921F922BEE33E04BEF53E092
:1031E0006BE074E083EC94E00E94F7068DB79EB725
:1031F00040960FB6F8949EBF0FBE8DBF1F910F91E2
:10320000FF90EF90DF90CF90BF90AF9008957894AB
:1032100084B5826084BD84B5816084BD85B58260DB
:1032200085BD85B5816085BD80916E00816080938C
:103230006E001092810080918100826080938100F5
:103240008091810081608093810080918000816005
:10325000809380008091B10084608093B100809160
:10326000B00081608093B000809191008260809373
:1032700091008091910081608093910080919000F5
:103280008160809390008091A10082608093A10072
:103290008091A10081608093A1008091A000816055
:1032A0008093A00080912101826080932101809110
:1032B00021018160809321018091200181608093B0
:1032C000200180917A00846080937A0080917A0056
:1032D000826080937A0080917A00816080937A0086
:1032E00080917A00806880937A001092C1002091CA
:1032F0001502309116028FEF91E2821B930B90938F
:103300001202809311020E94A4080E9492170E9448
:10331000A4080E946E06FDCF0F931F93CF93DF93F7
:103320008230910510F482E090E0E0910305F09185
:10333000040530E020E0B0E0A0E0309799F42115DA
:10334000310509F44AC0281B390B24303105D8F562
:103350008A819B816115710589F1FB0193838283C9
:10336000FE0111C040815181028113814817590724
:10337000E0F04817590799F4109761F012960C93F2
:10338000129713961C933296CF01DF91CF911F9124
:103390000F9108950093030510930405F4CF2115B0
:1033A000310551F04217530738F0A901DB019A01AA
:1033B000BD01DF01F801C1CFEF01F9CF9093040502
:1033C00080930305CDCFFE01E20FF31F819391930C
:1033D0002250310939832883D7CF209101053091BC
:1033E0000205232B41F420911302309114023093F3
:1033F000020520930105209111023091120221153E
:10340000310541F42DB73EB7409115025091160297
:10341000241B350BE0910105F0910205E217F3073B
:10342000A0F42E1B3F0B2817390778F0AC014E5F34
:103430005F4F2417350748F04E0F5F1F509302056A
:1034400040930105819391939FCFF0E0E0E09CCF02
:10345000CF93DF930097E9F0FC0132971382128239
:10346000A0910305B0910405ED0130E020E0109734
:10347000A1F420813181820F931F209101053091A9
:1034800002052817390709F061C0F0930205E0939F
:103490000105DF91CF910895EA01CE17DF07E8F526
:1034A0004A815B819E0141155105B1F7E901FB831A
:1034B000EA8349915991C40FD51FEC17FD0761F4B8
:1034C000808191810296840F951FE90199838883F9
:1034D000828193819B838A83F0E0E0E012968D9154
:1034E0009C9113970097B9F52D913C911197CD01BF
:1034F0000296820F931F2091010530910205281733
:10350000390739F6309751F51092040510920305EA
:10351000B0930205A0930105BCCFD383C283408141
:103520005181840F951FC817D90761F44E5F5F4F13
:1035300088819981480F591F518340838A819B81DB
:10354000938382832115310509F0B0CFF0930405F0
:10355000E09303059ECFFD01DC01C0CF13821282F0
:10356000D7CF662777270C94E01A4FEF54E00C94DE
:10357000B91AFA01A191B081009719F41097E1F0FE
:10358000CD01DC01CD010D90002011F4C00113C06C
:10359000FB012191222319F02015D9F7F3CFFB016C
:1035A0002191201519F41E92119606C02223C1F70D
:1035B0000D900020A1F7D001FA01A193B0830895E6
:1035C0008F929F92AF92BF92CF92DF92EF92FF9233
:1035D0000F931F93CF93DF935C017B0161157105FE
:1035E00019F0DB018D939C9385010F5F1F4FF5014F
:1035F000D0818D2F90E00E943E1C6C01892BB9F583
:10360000DD32B9F50F5F1F4FD5011196DC91C1E096
:103610005801F1E0AF1AB10843E050E068EC71E006
:10362000C5010E94471C892B69F5680182E0C80E1C
:10363000D11C45E050E063EC71E0C6010E94471CDC
:10364000892B21F4680197E0C90ED11CE114F10423
:1036500019F0D701CD92DC9260E070E080E89FEF36
:10366000C111FFC060E070E080E89FE7FAC0580138
:10367000BBCFDB3229F485010E5F1F4FF501D181ED
:10368000C0E0C6CF43E050E060EC71E0C5010E94AD
:10369000471C892BE9F0F80110E000E020E030E061
:1036A000A9015F01B0ED8B2E8D0E89E08815C8F160
:1036B0009C2E689491F88C2F8870C2FF16C08111DF
:1036C00002C00F5F1F4F3196D501DC91C92DE9CFA4
:1036D000E114F10429F00E5F1F4FF70111830083FD
:1036E00060E070E080EC9FE7BCC0882311F00150DF
:1036F0001109A5E0B0E00E94861D9B01AC01220FDC
:10370000331F441F551F280D311D411D511D2839E0
:1037100099E93907490799E15907A8F2C6609C2E33
:10372000D2CFAEEF8A1206C0C3FD3CC09C2E689477
:1037300093F8C9CFDF7DD534A9F580818D3239F476
:10374000C061DF011296818162E070E006C0DF0196
:103750008B32C1F3119661E070E080535D01A61ACF
:10376000B70A8A30F8F4E0E8CE16ECE0DE065CF446
:10377000B601660F771F660F771FC60ED71ECC0CDB
:10378000DD1CC80ED11C5D01FFEFAF1ABF0A8C9182
:1037900080538A30A8F1C4FF03C0D194C194D108EA
:1037A0000C0D1D1DC1FF09C0E114F10431F081E0D1
:1037B000A81AB108D701AD92BC92CA01B9010E9402
:1037C000641CC370C33009F490584B015C0120E0C5
:1037D00030E0A9010E945F1C882309F440C0C7EFB4
:1037E000D1E017FF05C0119501951109CFEDD1E08A
:1037F0006E01B8E1CB1AD10880E2E82EF12C0FC09F
:10380000D501B1CFFE0125913591459154910E1905
:103810001F09C501B4010E94C51C4B015C01D50103
:10382000C4010E151F0574F72497F594E794CC1680
:10383000DD06A9F78A2F880F8B2F881F8F3F49F04D
:1038400020E030E0A901C501B4010E945F1C811194
:1038500006C082E290E09093060580930505C501BD
:10386000B401DF91CF911F910F91FF90EF90DF9006
:10387000CF90BF90AF909F908F90089591110C942E
:10388000321D803219F089508550C8F70895FB0128
:10389000DC014150504088F08D9181341CF08B3513
:1038A0000CF4805E659161341CF06B350CF4605E45
:1038B000861B611171F3990B0895881BFCCF0E9440
:1038C000A11C08F481E00895E89409C097FB3EF438
:1038D00090958095709561957F4F8F4F9F4F99235D
:1038E000A9F0F92F96E9BB279395F69587957795DB
:1038F0006795B795F111F8CFFAF4BB0F11F460FF9B
:103900001BC06F5F7F4F8F4F9F4F16C0882311F0F2
:1039100096E911C0772321F09EE8872F762F05C006
:10392000662371F096E8862F70E060E02AF09A95A1
:10393000660F771F881FDAF7880F9695879597F996
:103940000895990F0008550FAA0BE0E8FEEF161630
:103950001706E807F907C0F012161306E407F50783
:1039600098F0621B730B840B950B39F40A2661F0F7
:10397000232B242B252B21F408950A2609F4A1409A
:10398000A6958FEF811D811D08950E94D81C0C946F
:103990004C1D0E943E1D38F00E94451D20F09523CD
:1039A00011F00C94351D0C943B1D11240C94801DBA
:1039B0000E945D1D70F3959FC1F3950F50E0551F58
:1039C000629FF001729FBB27F00DB11D639FAA2774
:1039D000F00DB11DAA1F649F6627B00DA11D661FC3
:1039E000829F2227B00DA11D621F739FB00DA11DE4
:1039F000621F839FA00D611D221F749F3327A00D9E
:103A0000611D231F849F600D211D822F762F6A2F39
:103A100011249F5750409AF0F1F088234AF0EE0F9E
:103A2000FF1FBB1F661F771F881F91505040A9F7CB
:103A30009E3F510580F00C94351D0C94801D5F3F16
:103A4000E4F3983ED4F3869577956795B795F79507
:103A5000E7959F5FC1F7FE2B880F911D969587957F
:103A600097F9089599278827089597F99F6780E81F
:103A700070E060E008959FEF80EC089500240A94C0
:103A80001616170618060906089500240A94121639
:103A90001306140605060895092E0394000C11F46C
:103AA000882352F0BB0F40F4BF2B11F460FF04C019
:103AB0006F5F7F4F8F4F9F4F089557FD9058440F72
:103AC000551F59F05F3F71F04795880F97FB991F7D
:103AD00061F09F3F79F0879508951216130614063A
:103AE000551FF2CF4695F1DF08C0161617061806C7
:103AF000991FF1CF86957105610508940895E894A2
:103B0000BB2766277727CB0197F908950E94911D5F
:103B1000A59F900DB49F900DA49F800D911D112421
:103B20000895A29FB001B39FC001A39F700D811D96
:103B30001124911DB29F700D811D1124911D0895B6
:103B4000A1E21A2EAA1BBB1BFD010DC0AA1FBB1FA1
:103B5000EE1FFF1FA217B307E407F50720F0A21B13
:103B6000B30BE40BF50B661F771F881F991F1A9480
:103B700069F760957095809590959B01AC01BD01AA
:103B8000CF010895EE0FFF1F881F8BBF0790F6919E
:103B9000E02D19945058BB27AA270E94E21D0C94CF
:103BA0004C1D0E943E1D38F00E94451D20F039F446
:103BB0009F3F19F426F40C943B1D0EF4E095E7FBAF
:103BC0000C94351DE92F0E945D1D58F3BA1762074A
:103BD00073078407950720F079F4A6F50C947F1DF0
:103BE0000EF4E0950B2EBA2FA02D0B01B901900118
:103BF0000C01CA01A0011124FF27591B99F0593F5C
:103C000050F4503E68F11A16F040A22F232F342FA3
:103C10004427585FF3CF469537952795A795F040F1
:103C20005395C9F77EF41F16BA0B620B730B840B06
:103C3000BAF09150A1F0FF0FBB1F661F771F881FBE
:103C4000C2F70EC0BA0F621F731F841F48F4879516
:103C500077956795B795F7959E3F08F0B0CF939508
:103C6000880F08F09927EE0F9795879508950E9481
:103C70004B1E0C944C1D0E94451D58F00E943E1D89
:103C800040F029F45F3F29F00C94351D51110C943C
:103C9000801D0C943B1D0E945D1D68F39923B1F3B8
:103CA000552391F3951B550BBB27AA276217730762
:103CB000840738F09F5F5F4F220F331F441FAA1FF6
:103CC000A9F335D00E2E3AF0E0E832D091505040B2
:103CD000E695001CCAF72BD0FE2F29D0660F771F60
:103CE000881FBB1F261737074807AB07B0E809F046
:103CF000BB0B802DBF01FF2793585F4F3AF09E3FCB
:103D0000510578F00C94351D0C94801D5F3FE4F351
:103D1000983ED4F3869577956795B795F7959F5F0D
:103D2000C9F7880F911D9695879597F90895E1E059
:103D3000660F771F881FBB1F621773078407BA07B8
:103D400020F0621B730B840BBA0BEE1F88F7E09513
:103D500008950E94B01E6894B1110C94801D0895BE
:103D60000E94651D88F09F5798F0B92F9927B75189
:103D7000B0F0E1F0660F771F881F991F1AF0BA950F
:103D8000C9F714C0B13091F00E947F1DB1E00895D1
:103D90000C947F1D672F782F8827B85F39F0B93FC3
:103DA000CCF3869577956795B395D9F73EF49095C2
:103DB0008095709561957F4F8F4F9F4F08950E941A
:103DC000A11C08F48FEF08954F925F926F927F923B
:103DD0008F929F92AF92BF92CF92DF92EF92FF921B
:103DE0000F931F93CF93DF938C01009799F4CB012E
:103DF000DF91CF911F910F91FF90EF90DF90CF90C7
:103E0000BF90AF909F908F907F906F905F904F90FA
:103E10000C948C19FC01E60FF71F9C01225031090C
:103E2000E217F30708F4AEC0D901CD91DC911197E8
:103E3000C617D70720F1C530D10578F0CE01049719
:103E40008617970750F0C61BD70B2297C193D193C3
:103E50006D937C93CF010E94281AC801DF91CF9106
:103E60001F910F91FF90EF90DF90CF90BF90AF9098
:103E70009F908F907F906F905F904F9008955B011F
:103E8000AC1ABD0A4C018C0E9D1EA0910305B09189
:103E90000405512C412CF12CE12C109731F5809127
:103EA0000105909102058815990509F05CC0461638
:103EB000570608F058C080911102909112020097A5
:103EC00041F48DB79EB74091150250911602841BA4
:103ED000950BE817F90708F055C0F0930205E09339
:103EE0000105F90171836083B8CF8D919C91119781
:103EF00012966C90129713967C901397A815B9059B
:103F000059F56C0142E0C40ED11CCA14DB0420F147
:103F1000AC014A195B09DA011296159780F06282AA
:103F2000738251834083D9016D937C93E114F10432
:103F300071F0D7011396FC93EE9312978ECF2296D1
:103F40008C0F9D1FF90191838083F301EFCFF093D4
:103F50000405E093030581CF4816590608F42C01A7
:103F60007D01D3019ACFCB010E948C197C0100976F
:103F700049F0AE01B8010E94C51FC8010E94281A6D
:103F800087016BCF10E000E068CFFB01DC0102C0CD
:103F900001900D9241505040D8F70895DC0101C0C6
:103FA0006D9341505040E0F70895FB01DC01019012
:0C3FB0000D920020E1F70895F894FFCF77
:103FBC00033805380538053805380538053805380F
:103FCC000500000705800032003300350034001373
:103FDC000012000200030006001A001B0007001C60
:103FEC00001D000400160017000500180019000041
:103FFC000000000106390566054E06C9057505BBAE
:10400C00052C000D0A0049444C4500546D72205398
:10401C0076630050494420436F6E74726F6C205469
:10402C0061736B0053657269616C205461736B0032
:00000001FF
