:100000000C947F010C9446080C941B080C94F00788
:100010000C94C5070C949A070C946F070C94440732
:100020000C9419070C94B0010C94B0010C94B0011D
:100030000C94B0010C94B0010C94B0010C94B0017C
:100040000C94B0010C94B0010C94B0010C94B0016C
:100050000C94B0010C94B0010C94B0010C94CF0638
:100060000C94B0010C949B080C9471080C94B00192
:100070000C94B0010C94B0010C94B0010C94B0013C
:100080000C94B0010C94B0010C94B0010C94B0012C
:100090000C94B0010C94B0010C94B0010C94B0011C
:1000A0000C94B0010C94B0010C94B0010C94B0010C
:1000B0000C94B0010C94B0010C94B0010C94B001FC
:1000C0000C94B0010C94B0010C94B0010C94B001EC
:1000D0000C94B0010C94B0010C94B0010C94B001DC
:1000E0000C94B0010C94D9020C944B030C94E501D0
:1000F0000C94DA010C94AA030C9415020C941102CE
:100100000C9450050C94E6020C9462050C94D001FA
:100110000C94F5010C94F9010C9407020C940C0357
:100120000C9428030C94EB010C94E2010C94100243
:100130000C945F030C9403020C9414030C94E102DE
:100140000C942C040C9473030C9404030C94D108A9
:100150000C9472040C94EF010C94FA020C94A90311
:100160000C94F0020C945C050C9456050C94FD0163
:100170000C941E030C9432030C9469030C943A04FF
:100180000C9441030C94E6030C94D7030C94D60111
:100190000C94BF040C940B020C9455030C94DE01D8
:1001A0004E414E494E495459494E46CDCCCC3D0A5C
:1001B000D7233C17B7D13877CC2B329595E6241F3F
:1001C000B14F0A000020410000C84200401C4620F8
:1001D000BCBE4CCA1B0E5AAEC59D74000021002443
:1001E0000027002A002D0030003300010100000428
:1001F0000107010A0100002200250028002B002E23
:10020000003100340002010000050108010B01006B
:100210000020002300260029002C002F00320000BF
:100220000100000301060109010505050507050890
:10023000080808020202020A0A0808040404040169
:10024000010101010101010303030303030303048B
:100250000707070C0C0C0C0C0C0C0C02020202061B
:10026000060606060606060B0B0B0B0B0B0B0B010B
:1002700002102020080810204010204080020102B7
:10028000010804020101020408102040808040207F
:1002900010080402018004020180402010080402BA
:1002A0000108040201010204081020408001020438
:1002B000081020408000000A0B02090C0D0E0807F0
:1002C0000304010000000000000000000000000026
:1002D000000000000000000000000000000000001E
:1002E00000121110000000000000000000000000DB
:1002F000000000000000000000000000D1081124F0
:100300001FBECFEFD1E2DEBFCDBF00E00CBF24E0C7
:10031000A6E5B2E001C01D92A435B207E1F712E0F4
:10032000A0E0B2E0EAE3F9E200E00BBF02C0079010
:100330000D92A635B107D9F711E0CFE7D1E000E083
:1003400006C021970109802FFE010E946311CE375C
:10035000D10780E00807A9F70E9455090C949B1467
:100360000C9400008150823108F05AC0E82FF0E070
:100370008827E254FE4F8F4F0C946311DE01E20197
:10038000D001D601DA011002E501EB01EF01F50120
:10039000F901FD010302070210020B02110215020E
:1003A000809180008F7780938000089580918000F5
:1003B0008F7DF9CF80918000877FF5CF84B58F77CF
:1003C00084BD089584B58F7DFBCF8091B0008F7779
:1003D0008093B00008958091B0008F7DF9CF809117
:1003E00090008F77809390000895809190008F7D8A
:1003F000F9CF80919000877FF5CF8091A0008F7713
:100400008093A00008958091A0008F7DF9CF809106
:10041000A000877FF5CF809120018F778093200106
:100420000895809120018F7DF9CF80912001877FF1
:10043000F5CFCF93DF93282F30E0F901EB54FD4F38
:100440008491F901E159FD4FD491F901E75DFD4F28
:10045000C491CC23A1F081110E94B201EC2FF0E0F5
:10046000EE0FFF1FE15FFD4FA591B491EC91ED23DD
:1004700081E090E009F480E0DF91CF91089580E081
:1004800090E0FACF1F93CF93DF93282F30E0F9014C
:10049000EB54FD4F8491F901E159FD4FD491F901DD
:1004A000E75DFD4FC491CC23A9F0162F81110E9466
:1004B000B201EC2FF0E0EE0FFF1FEB50FE4FA591C5
:1004C000B4918FB7F894EC91111108C0D095DE2348
:1004D000DC938FBFDF91CF911F910895DE2BF8CF72
:1004E000CF93DF9390E0FC01E159FD4F2491875DAC
:1004F0009D4FFC0184918823D1F090E0880F991FD3
:10050000FC01E552FE4FA591B491FC01EB50FE4F6A
:10051000C591D49161110EC09FB7F8948C91E22FD0
:10052000E0958E238C932881E223E8839FBFDF919F
:10053000CF9108958FB7F894EC91E22BEC938FBF95
:10054000F6CF1F93CF93DF93182FEB0161E00E944A
:100550007002209739F460E0812FDF91CF911F91D5
:100560000C944202CF3FD10511F461E0F5CFE12FA9
:10057000F0E0EB54FD4FE491E150E23108F0B3C0FC
:10058000F0E08827E953FD4F8F4F0C946311D90297
:10059000E102E602F002FA02730304030C031403FF
:1005A0001E032803320341034B03730355035F0308
:1005B000690384B5806884BDC7BDDF91CF911F9169
:1005C000089584B5806284BDC8BDF7CF8091800056
:1005D000806880938000D0938900C0938800EDCF1D
:1005E00080918000806280938000D0938B00C093C4
:1005F0008A00E3CF80918000886080938000D09350
:100600008D00C0938C00D9CF8091B000806880931A
:10061000B000C093B300D1CF8091B00080628093CE
:10062000B000C093B400C9CF8091900080688093DF
:100630009000D0939900C0939800BFCF8091900014
:10064000806280939000D0939B00C0939A00B5CFB6
:1006500080919000886080939000D0939D00C0931B
:100660009C00ABCF8091A00080688093A000809117
:10067000A0008F7B8093A000D093A900C093A80016
:100680009CCF8091A00080628093A000D093AB00AB
:10069000C093AA0092CF8091A00088608093A000B0
:1006A000D093AD00C093AC0088CF809120018068CA
:1006B00080932001D0932901C09328017ECF80919F
:1006C0002001806280932001D0932B01C0932A01E6
:1006D00074CF80912001886080932001D0932D01F8
:1006E000C0932C016ACFC038D1050CF03ECF33CF78
:1006F0003FB7F89480918B0290918C02A0918D026B
:10070000B0918E0226B5A89B05C02F3F19F0019627
:10071000A11DB11D3FBFBA2FA92F982F8827BC015B
:10072000CD01620F711D811D911D42E0660F771F83
:10073000881F991F4A95D1F708952FB7F8946091B3
:100740008702709188028091890290918A022FBF5E
:1007500008950895AF92BF92CF92DF92EF92FF92E9
:100760000F931F93CF93DF936C017B018B01040FD9
:10077000151FEB015E01AE18BF08C017D10759F075
:100780006991D601ED91FC910190F081E02DC601B7
:100790001995892B79F7C501DF91CF911F910F91A1
:1007A000FF90EF90DF90CF90BF90AF900895FC0145
:1007B000538D448D252F30E0842F90E0821B930BC6
:1007C000541710F0CF96089501970895FC01918D6C
:1007D000828D981761F0A28DAE0FBF2FB11D5D966F
:1007E0008C91928D9F5F9F73928F90E008958FEF11
:1007F0009FEF08950F931F930E949D0360939702AC
:10080000709398028093990290939A028FE892E0F5
:100810000E94E60397FF1DC00E949D03009197026E
:10082000109198022091990230919A02601B710BED
:10083000820B930B009193021091940220919502E8
:10084000309196026017710782079307F8F28FEFD5
:100850009FEF1F910F910895FC01918D828D981744
:1008600031F0828DE80FF11D858D90E008958FEFB6
:100870009FEF0895FC01918D228D892F90E0805C7F
:100880009F4F821B91098F73992708958FE892E0FB
:100890000E943A0421E0892B09F420E0822F089578
:1008A000FC01A48DA80FB92FB11DA35ABF4F2C91E5
:1008B000848D90E001968F739927848FA689B789DC
:1008C0002C93A089B1898C91837080648C93938DD3
:1008D000848D981306C00288F389E02D80818F7D76
:1008E00080830895EF92FF920F931F93CF93DF932E
:1008F000EC0181E0888F9B8D8C8D98131AC0E8895C
:10090000F989808185FF15C09FB7F894EE89FF892A
:100910006083E889F98980818370806480839FBFC8
:1009200081E090E0DF91CF911F910F91FF90EF90C8
:100930000895F62E0B8D10E00F5F1F4F0F731127D8
:10094000E02E8C8D8E110CC00FB607FCFACFE88913
:10095000F989808185FFF5CFCE010E945004F1CF47
:10096000EB8DEC0FFD2FF11DE35AFF4FF0829FB787
:10097000F8940B8FEA89FB8980818062CFCFCF9377
:10098000DF93EC01888D8823B9F0AA89BB89E889B7
:10099000F9898C9185FD03C0808186FD0DC00FB65D
:1009A00007FCF7CF8C9185FFF2CF808185FFEDCFDB
:1009B000CE010E945004E9CFDF91CF91089580E0ED
:1009C00090E0892B29F00E94460481110E940000CA
:1009D00080E090E0892B49F080E090E0892B29F0BD
:1009E0000E94000081110E94000080E090E0892BAD
:1009F00049F080E090E0892B29F00E9400008111ED
:100A00000E94000080E090E0892B49F080E090E0B7
:100A1000892B29F00E94000081110C940000089598
:100A2000CF92DF92EF92FF920F931F93CF93DF93BA
:100A30008C01EB017C01EE0CFF1CF701E25EFD4F27
:100A400080810E9419026C01F701EA5EFD4F8081EE
:100A50000E9419020D7F0130110559F4C816D906FC
:100A600059F488819981AA81BB810197A109B109B3
:100A70000AC0C816D906A9F788819981AA81BB81C5
:100A80000196A11DB11D88839983AA83BB83DF9141
:100A9000CF911F910F91FF90EF90DF90CF9008952D
:100AA00062E872E090E080E00C9410056EE772E07E
:100AB00081E090E00C9410056AE772E082E090E03B
:100AC0000C94100566E772E083E090E00C9410054A
:100AD0004F925F926F927F928F929F92AF92BF924E
:100AE000CF92DF92EF92FF920F931F93CF93DF93FA
:100AF000CDB7DEB74C0127013801DC015F965C936E
:100B00004E935E975D967C936E935C9791963C9323
:100B10002E939097DA961C92FC0112AA13AA14AA9B
:100B200015AA80E090E0AFE7B3E486AB97ABA0AF47
:100B3000B1AF84E690E0A0E0B0E086A797A7A0ABB5
:100B4000B1AB118E108E20E030E0A901C801B701D1
:100B50000E94001087FD53C020E030E0A901C601CB
:100B6000B5010E94001087FD4AC020E030E0A901D5
:100B70006C897D898E899F890E94001087FD3FC006
:100B800081E090E0D4015B969C938E935A97DB961C
:100B90008C93DB97F40140825182628273821496B7
:100BA000AD92BD92CD92DC9217978C899D89AE89CA
:100BB000BF8980879187A287B387448655866686DA
:100BC00077862DEC3CEC4CEC5DE3C601B5010E9450
:100BD0006610F401608B718B828B938B2DEC3CEC57
:100BE0004CEC5DE36C897D898E899F890E94D811C8
:100BF000D40154966D937D938D939C9357970E9447
:100C00009D03F401C6A4D7A4E0A8F1A86C197D093E
:100C10008E099F0962A373A384A395A3DF91CF914B
:100C20001F910F91FF90EF90DF90CF90BF90AF900A
:100C30009F908F907F906F905F904F900895FC01F0
:100C400001900020E9F73197AF01481B590BBC0117
:100C50008FE892E00C94AA038F929F92AF92BF927A
:100C6000CF92DF92EF92FF920F931F93CF93DF9378
:100C7000CDB7DEB7A1970FB6F894DEBF0FBECDBFDC
:100C80006B017C01F7FE41C06DE28FE892E00E94AB
:100C900072048C0122273327A9012C193D094E0922
:100CA0005F0919A2CE0181967C019AE0892E912CD0
:100CB000A12CB12CCA01B901A50194010E944111D6
:100CC000605DF70162937F012115310541055105F2
:100CD00089F790E080E0309719F0CF010E941F065D
:100CE000800F911FA1960FB6F894DEBF0FBECDBF47
:100CF000DF91CF911F910F91FF90EF90DF90CF90F8
:100D0000BF90AF909F908F900895AC019B0119A266
:100D10008E010F5D1F4F8AE0C82ED12CE12CF12CE3
:100D2000CA01B901A70196010E944111605DF80155
:100D300062938F01211531054105510589F790E036
:100D400080E0309779F2CF010E941F06CBCF0F933E
:100D50001F93CF93DF93EC0188819981009759F01D
:100D60002A813B812617370730F081E0DF91CF9150
:100D70001F910F9108958B016F5F7F4F0E94AA13FF
:100D8000009759F0998388831B830A832C813D81C6
:100D9000232B59F7FC011082E8CF80E0E7CF1F92A8
:100DA0000F920FB60F9211242F933F938F939F931F
:100DB000AF93BF938091870290918802A09189029E
:100DC000B0918A023091860223E0230F2D3758F527
:100DD0000196A11DB11D20938602809387029093F6
:100DE0008802A0938902B0938A0280918B0290912D
:100DF0008C02A0918D02B0918E020196A11DB11DB1
:100E000080938B0290938C02A0938D02B0938E02FC
:100E1000BF91AF919F918F913F912F910F900FBEF6
:100E20000F901F90189526E8230F0296A11DB11D63
:100E3000D2CF1F920F920FB60F9211240BB60F92C2
:100E40002F933F934F935F936F937F938F939F93D2
:100E5000AF93BF93EF93FF93E0910E02F0910F02D7
:100E60001995FF91EF91BF91AF919F918F917F91D4
:100E70006F915F914F913F912F910F900BBE0F900B
:100E80000FBE0F901F9018951F920F920FB60F92E2
:100E900011240BB60F922F933F934F935F936F9351
:100EA0007F938F939F93AF93BF93EF93FF93E091C3
:100EB0000C02F0910D021995FF91EF91BF91AF9146
:100EC0009F918F917F916F915F914F913F912F9162
:100ED0000F900BBE0F900FBE0F901F9018951F9292
:100EE0000F920FB60F9211240BB60F922F933F93D0
:100EF0004F935F936F937F938F939F93AF93BF9322
:100F0000EF93FF93E0910202F09103021995FF9194
:100F1000EF91BF91AF919F918F917F916F915F9171
:100F20004F913F912F910F900BBE0F900FBE0F90DE
:100F30001F9018951F920F920FB60F9211240BB6A7
:100F40000F922F933F934F935F936F937F938F9362
:100F50009F93AF93BF93EF93FF93E0910002F091C3
:100F600001021995FF91EF91BF91AF919F918F91E0
:100F70007F916F915F914F913F912F910F900BBE99
:100F80000F900FBE0F901F9018951F920F920FB6E3
:100F90000F9211240BB60F922F933F934F935F93B1
:100FA0006F937F938F939F93AF93BF93EF93FF9331
:100FB000E0910A02F0910B021995FF91EF91BF9118
:100FC000AF919F918F917F916F915F914F913F91E1
:100FD0002F910F900BBE0F900FBE0F901F90189582
:100FE0001F920F920FB60F9211240BB60F922F93F0
:100FF0003F934F935F936F937F938F939F93AF93A1
:10100000BF93EF93FF93E0910802F09109021995C5
:10101000FF91EF91BF91AF919F918F917F916F91D0
:101020005F914F913F912F910F900BBE0F900FBE8C
:101030000F901F9018951F920F920FB60F921124C8
:101040000BB60F922F933F934F935F936F937F93C2
:101050008F939F93AF93BF93EF93FF93E09106021B
:10106000F09107021995FF91EF91BF91AF919F9178
:101070008F917F916F915F914F913F912F910F9041
:101080000BBE0F900FBE0F901F9018951F920F92DE
:101090000FB60F9211240BB60F922F933F934F93DD
:1010A0005F936F937F938F939F93AF93BF93EF93D0
:1010B000FF93E0910402F09105021995FF91EF91E1
:1010C000BF91AF919F918F917F916F915F914F9160
:1010D0003F912F910F900BBE0F900FBE0F901F905E
:1010E00018951F920F920FB60F9211240BB60F9204
:1010F0002F933F934F935F936F937F938F939F9320
:10110000AF93BF93EF93FF938FE892E00E94500458
:10111000FF91EF91BF91AF919F918F917F916F91CF
:101120005F914F913F912F910F900BBE0F900FBE8B
:101130000F901F9018951F920F920FB60F921124C7
:101140000BB60F922F938F939F93EF93FF93E091A2
:101150009F02F091A0028081E091A502F091A60289
:1011600082FD1DC090818091A8028F5F8F732091B6
:10117000A902821741F0E091A802F0E0E157FD4F8B
:10118000958F8093A802FF91EF919F918F912F915E
:101190000F900BBE0F900FBE0F901F90189580817F
:1011A000F2CFAF92BF92CF92DF92EF92FF920F9366
:1011B0001F93EFE8F2E01382128288EE93E0A0E042
:1011C000B0E084839583A683B78382E492E0918321
:1011D000808385EC90E09587848784EC90E0978706
:1011E000868780EC90E0918B808B81EC90E0938BF4
:1011F000828B82EC90E0958B848B86EC90E0978BD1
:10120000868B118E128E138E148E1F921F921F9238
:101210001F92A12CB12C6501E12CF12C00E81FE3F9
:101220002CE233E04CE353E06CE473E08CE593E0B4
:101230000E9468051F921F921F921F9220E333E0C5
:1012400040E453E060E573E088E993E00E946805BC
:101250001F921F921F921F9224E333E044E453E055
:1012600064E573E084ED93E00E9468051F921F928D
:101270001F921F9228E333E048E453E068E573E0EF
:1012800080E194E00E9468058DB79EB740960FB646
:10129000F8949EBF0FBE8DBF1F910F91FF90EF90EE
:1012A000DF90CF90BF90AF900895CF93DF93CDB7ED
:1012B000DEB7A5970FB6F894DEBF0FBECDBF78940A
:1012C00084B5826084BD84B5816084BD85B582604B
:1012D00085BD85B5816085BD80916E0081608093FC
:1012E0006E00109281008091810082608093810065
:1012F0008091810081608093810080918000816075
:10130000809380008091B10084608093B1008091CF
:10131000B00081608093B0008091910082608093E2
:101320009100809191008160809391008091900064
:101330008160809390008091A10082608093A100E1
:101340008091A10081608093A1008091A0008160C4
:101350008093A0008091210182608093210180917F
:10136000210181608093210180912001816080931F
:10137000200180917A00846080937A0080917A00C5
:10138000826080937A0080917A00816080937A00F5
:1013900080917A00806880937A001092C100E09179
:1013A0009F02F091A00282E08083E0919B02F09185
:1013B0009C021082E0919D02F0919E028FEC80834E
:1013C0001092A702E091A302F091A40286E080832C
:1013D000E091A102F091A202808180618083E0917E
:1013E000A102F091A202808188608083E091A10235
:1013F000F091A202808180688083E091A102F09147
:10140000A20280818F7D80832EE132E03C872B8792
:1014100046E152E05E874D870CE513E036E2232E6D
:1014200032E0332E812C912C4FE7A42E43E4B42ECE
:1014300061E0D1018C910E94700261E0F101828132
:101440000E94700261E0D10114968C910E9470029A
:10145000EB85FC8580813296FC87EB8760E00E94FB
:101460007002AD85BE858C911296BE87AD8760E017
:101470000E947002F80182AD268D378D3A87298748
:10148000811136C0D901CD90DD90ED90FC90C6A2BF
:10149000D7A2E0A6F1A6048CF58DE02D8081918184
:1014A000A281B381F80182A793A7A4A7B5A746A8F4
:1014B00057A860AC71ACA3019201C701B6010E94AC
:1014C0008012181644F4D80196964D925D926D9252
:1014D0007C9299970DC0F80142A853A864A875A8FA
:1014E000A3019201C701B6010E94001087FDEBCF56
:1014F00081E0F80182AF20E030E04FE753EC22AB0F
:1015000033AB44AB55AB86AA97AAA0AEB1AEA985C2
:10151000BA85CD90DD90ED90FC9020E030E04FE773
:1015200053E4C701B6010E9480121816FCF4E98545
:10153000FA8580829182A282B382F80146A057A0E8
:1015400060A471A4C6A8D7A8E0ACF1ACA70196012D
:10155000C301B2010E9480121816F4F4D8019696C5
:10156000CD92DD92ED92FC92999723C020E030E07D
:101570004FE753ECC701B6010E94001087FFDDCF93
:1015800020E030E04FE753ECA985BA852D933D93D9
:101590004D935C931397D1CFF801C2A8D3A8E4A8C8
:1015A000F5A8A7019601C301B2010E94001087FDB2
:1015B000D5CFB6E02B0E311C045C1F4FEEE3F2E0FA
:1015C000E215F30509F034CF80E595E09093090228
:1015D00080930802809169008F7C8061809369000C
:1015E000EA9A86E595E090930B0280930A02809137
:1015F00069008F73806480936900EB9A8CE595E0B5
:10160000909301028093000280916A008C7F816038
:1016100080936A00EC9A82E695E0909303028093AF
:10162000020280916A00837F846080936A00ED9A51
:101630008FE892E00E943A04181619060CF0FBC2DB
:101640001A8219821C821B821E821D8270E060E059
:10165000CE0101960E94A70629813A8181112EC0F0
:101660002115310519F0C9010E9421131A8219822E
:101670001E821D821C821B820E94FA0397FD26C0D7
:101680008A30910519F18F8318860D811E810F5FB5
:101690001F4FB801CE0101960E94A706882361F36F
:1016A00029813A818D819E81BE01695F7F4F820FC2
:1016B000931F0E9494141E830D83DECF1E821D8211
:1016C00064E572E0C9010E949414D6CF60E572E02F
:1016D00089819A810E94560E0E94520E60932C03BB
:1016E00070932D0380932E0390932F0360E572E097
:1016F00090E080E00E94560E0E94520E60933003EC
:1017000070933103809332039093330360E572E06A
:1017100090E080E00E94560E0E94520E60933403C7
:1017200070933503809336039093370360E572E03E
:1017300090E080E00E94560E0E94520E60933803A3
:101740007093390380933A0390933B032CE333E087
:101750003E8B2D8B46E552E05A8B498B86E692E014
:101760009C8B8B8BACE4B3E0BDA3ACA32CE5222E09
:1017700023E0322EE6E2F2E0F88BEF871E861D862C
:101780000E949D032B013C012D853E8522303105B1
:1017900009F4C1C12330310509F4C6C12130310536
:1017A00009F4B0C1C0908202D0908302E09084021C
:1017B000F0908502EB89FC8980819181A281B381BF
:1017C000A3019201281B390B4A0B5B0BCA01B9011B
:1017D0000E94051020E030E04AE754E40E94D8114E
:1017E0004B015C0120E030E0A9010E9400101816B6
:1017F00044F09FE6892E92E1992E93E8A92E9AE370
:10180000B92EE989FA8980819181A281B381A701EA
:101810009601281B390B4A0B5B0BCA01B901C08228
:10182000D182E282F382EB89FC89419251926192EA
:101830007192FC8BEB8B0E94071020E030E044EBB0
:1018400054E40E94D811A50194010E94D8119B0173
:10185000AC010E946C112BED3FE049E450E40E9482
:101860006610ACA1BDA16D937D938D939D93BDA397
:10187000ACA3F10182AD882309F406C10E949D0347
:101880006F8B788F898F9A8FF10182A193A1A4A188
:10189000B5A14F89588D698D7A8D481B590B6A0BFC
:1018A0007B0B86A597A5A0A9B1A9481759076A0778
:1018B0007B0708F4E9C0048CF58DE02D4080518051
:1018C00062807380D1019096ED91FC91A301920109
:1018D00060817181828193810E946B116B017C0117
:1018E000F10122A533A544A555A5C301B2010E946B
:1018F0006B116B8F7C8F8D8F9E8FD10150962D91A8
:101900003D914D915C915397C701B6010E946610BD
:10191000F10126A137A140A551A50E946C114B01F0
:101920005C01D10196968D929D92AD92BC92999751
:10193000DB96BC91BF8FB11118C0F10124853585AC
:10194000468557856B8D7C8D8D8D9E8D0E94661092
:101950009B01AC01C501B4010E946B11D1019696A7
:101960006D937D938D939C939997D10196962D912C
:101970003D914D915C91999728A339A34AA35BA30C
:10198000D696BC91B987F101F7A9FB87D101D8960A
:101990000C91D897D9961C9129853F2FA80168A151
:1019A00079A18AA19BA10E94801218160CF0C5C0D3
:1019B00089859B85D801F10186A397A3A0A7B1A72C
:1019C000FF8DFF2309F4D0C0D1011C962D913D91CC
:1019D0004D915C911F97C701B6010E9466106B0183
:1019E0007C01F10124893589468957896B8D7C8D6D
:1019F0008D8D9E8D0E9466109B01AC01D101969643
:101A00006D917D918D919C9199970E946B11A70189
:101A100096010E946C116B017C019B01AC016985F0
:101A20007B85C8010E94001087FD16C0F101F2A954
:101A3000F987D101D396BC91BB87F10104A915A9FF
:101A400029853B2FA801B601C7010E94001087FD20
:101A500003C0C986DB868701D1015E96ED91FC91BA
:101A600089859B85D80180839183A283B383F1010B
:101A700042A653A664A675A62F89388D498D5A8D26
:101A800022A333A344A355A3ED89FE8981909190AD
:101A9000A190B190FE8BED8BAF85B889DC9012964A
:101AA000EC9012971496FC9020E030E04FE753EC56
:101AB000C501B4010E94001087FDE4C020E030E0C1
:101AC0004FE753E4C501B4010E94801218160CF4CC
:101AD0004FC0C501B4010E944A128B0116161706A9
:101AE0000CF448C0672B09F4D0C061E08E2D0E9431
:101AF000420260E08F2D0E94420266277727601B1A
:101B0000710B41C0C0907E02D0907F02E0908002B5
:101B1000F09081024FCEC0907A02D0907B02E0908C
:101B20007C02F0907D0246CEC0907602D090770283
:101B3000E0907802F09079023DCED101D2968D905E
:101B40009D90AD90BC90D597A501940168A179A115
:101B50008AA19BA10E94001087FF32CFF10186A2CB
:101B600097A2A0A6B1A62CCFC12CD12C760139CF3B
:101B70000FEF10E060E08E2D0E94420261E08F2D99
:101B80000E944202B8018D2D0E94A102ED85FE85C2
:101B90003196FE87ED872F8538892A5F3F4F388B36
:101BA0002F873CE3230E311C49895A894C5F5F4FD4
:101BB0005A8B498B349709F0E3CD60918202709182
:101BC000830280918402909185020E942C0680E518
:101BD00092E00E941F0660917E0270917F028091C8
:101BE0008002909181020E942C0680E592E00E9482
:101BF0001F0660917A0270917B0280917C02909125
:101C00007D020E942C0680E592E00E941F066091F2
:101C100076027091770280917802909179020E9409
:101C20002C0682E592E00E941F0689819A81009726
:101C300011F00E9421130E9478034B015C0188EC93
:101C4000C82ED12CE12CF12C0E9478036819790957
:101C50008A099B09683E734081059105A8F351E00C
:101C6000C51AD108E108F10888EE880E83E0981EB5
:101C7000A11CB11CC114D104E104F10429F70E9494
:101C8000DF04D6CC01E01FEF30CF60E08D2D0E9445
:101C9000420260E08E2D0E94420260E08F2D0E9481
:101CA000420274CF662777270C94810E4CE454E0EF
:101CB0000C945A0EFA01A191B081009719F4109773
:101CC000E1F0CD01DC01CD010D90002011F4C00147
:101CD00013C0FB012191222319F02015D9F7F3CF6E
:101CE000FB012191201519F41E92119606C02223A2
:101CF000C1F70D900020A1F7D001FA01A193B083A4
:101D000008958F929F92AF92BF92CF92DF92EF92FF
:101D1000FF920F931F93CF93DF935C017B016115BB
:101D2000710519F0DB018D939C9385010F5F1F4FA7
:101D3000F501D0818D2F90E00E94DF0F6C01892B7F
:101D4000B9F5DD32B9F50F5F1F4FD5011196DC9162
:101D5000C1E05801F1E0AF1AB10843E050E068EA91
:101D600071E0C5010E94E80F892B69F5680182E0E6
:101D7000C80ED11C45E050E063EA71E0C6010E9444
:101D8000E80F892B21F4680197E0C90ED11CE114FA
:101D9000F10419F0D701CD92DC9260E070E080E8A8
:101DA0009FEFC111FFC060E070E080E89FE7FAC0DC
:101DB0005801BBCFDB3229F485010E5F1F4FF501BF
:101DC000D181C0E0C6CF43E050E060EA71E0C501D8
:101DD0000E94E80F892BE9F0F80110E000E020E014
:101DE00030E0A9015F01B0ED8B2E8D0E89E08815E2
:101DF000C8F19C2E689491F88C2F8870C2FF16C091
:101E0000811102C00F5F1F4F3196D501DC91C92DA2
:101E1000E9CFE114F10429F00E5F1F4FF7011183A0
:101E2000008360E070E080EC9FE7BCC0882311F085
:101E300001501109A5E0B0E00E9427119B01AC01FF
:101E4000220F331F441F551F280D311D411D511DE9
:101E5000283999E93907490799E15907A8F2C66075
:101E60009C2ED2CFAEEF8A1206C0C3FD3CC09C2E82
:101E7000689493F8C9CFDF7DD534A9F580818D3280
:101E800039F4C061DF011296818162E070E006C022
:101E9000DF018B32C1F3119661E070E080535D0188
:101EA000A61AB70A8A30F8F4E0E8CE16ECE0DE06AF
:101EB0005CF4B601660F771F660F771FC60ED71E3C
:101EC000CC0CDD1CC80ED11C5D01FFEFAF1ABF0AA0
:101ED0008C9180538A30A8F1C4FF03C0D194C1947F
:101EE000D1080C0D1D1DC1FF09C0E114F10431F032
:101EF00081E0A81AB108D701AD92BC92CA01B9011C
:101F00000E940510C370C33009F490584B015C0166
:101F100020E030E0A9010E940010882309F440C0AD
:101F2000C7EDD1E017FF05C0119501951109CFEB61
:101F3000D1E06E01B8E1CB1AD10880E2E82EF12C95
:101F40000FC0D501B1CFFE01259135914591549136
:101F50000E191F09C501B4010E9466104B015C01F6
:101F6000D501C4010E151F0574F72497F594E79465
:101F7000CC16DD06A9F78A2F880F8B2F881F8F3F7D
:101F800049F020E030E0A901C501B4010E94001031
:101F9000811106C082E290E090934F0480934E043A
:101FA000C501B401DF91CF911F910F91FF90EF9088
:101FB000DF90CF90BF90AF909F908F900895911138
:101FC0000C94D310803219F089508550C8F70895C9
:101FD000FB01DC014150504088F08D9181341CF0B0
:101FE0008B350CF4805E659161341CF06B350CF41C
:101FF000605E861B611171F3990B0895881BFCCFFD
:102000000E94421008F481E00895E89409C097FB0B
:102010003EF490958095709561957F4F8F4F9F4FBF
:102020009923A9F0F92F96E9BB279395F695879503
:1020300077956795B795F111F8CFFAF4BB0F11F4C6
:1020400060FF1BC06F5F7F4F8F4F9F4F16C088236D
:1020500011F096E911C0772321F09EE8872F762FA3
:1020600005C0662371F096E8862F70E060E02AF0E4
:102070009A95660F771F881FDAF7880F96958795D0
:1020800097F90895990F0008550FAA0BE0E8FEEFA5
:1020900016161706E807F907C0F012161306E4072C
:1020A000F50798F0621B730B840B950B39F40A2625
:1020B00061F0232B242B252B21F408950A2609F403
:1020C000A140A6958FEF811D811D08950E94791072
:1020D0000C94ED100E94DF1038F00E94E61020F002
:1020E000952311F00C94D6100C94DC1011240C9450
:1020F00021110E94FE1070F3959FC1F3950F50E0DF
:10210000551F629FF001729FBB27F00DB11D639FA9
:10211000AA27F00DB11DAA1F649F6627B00DA11D4F
:10212000661F829F2227B00DA11D621F739FB00DF5
:10213000A11D621F839FA00D611D221F749F332765
:10214000A00D611D231F849F600D211D822F762FFE
:102150006A2F11249F5750409AF0F1F088234AF0DB
:10216000EE0FFF1FBB1F661F771F881F9150504047
:10217000A9F79E3F510580F00C94D6100C942111C4
:102180005F3FE4F3983ED4F3869577956795B795CE
:10219000F795E7959F5FC1F7FE2B880F911D9695E8
:1021A000879597F9089599278827089597F99F6744
:1021B00080E870E060E008959FEF80EC08950024CF
:1021C0000A941616170618060906089500240A949C
:1021D00012161306140605060895092E0394000C22
:1021E00011F4882352F0BB0F40F4BF2B11F460FFB1
:1021F00004C06F5F7F4F8F4F9F4F089557FD9058DA
:10220000440F551F59F05F3F71F04795880F97FBBA
:10221000991F61F09F3F79F0879508951216130674
:102220001406551FF2CF4695F1DF08C016161706A3
:102230001806991FF1CF86957105610508940895D8
:10224000E894BB2766277727CB0197F908950E946A
:102250003211A59F900DB49F900DA49F800D911DEC
:1022600011240895A29FB001B39FC001A39F700DD8
:10227000811D1124911DB29F700D811D1124911D8E
:102280000895A1E21A2EAA1BBB1BFD010DC0AA1FB7
:10229000BB1FEE1FFF1FA217B307E407F50720F0CF
:1022A000A21BB30BE40BF50B661F771F881F991F4A
:1022B0001A9469F760957095809590959B01AC0193
:1022C000BD01CF010895EE0FFF1F881F8BBF079040
:1022D000F691E02D19945058BB27AA270E9483112C
:1022E0000C94ED100E94DF1038F00E94E61020F0F0
:1022F00039F49F3F19F426F40C94DC100EF4E095A9
:10230000E7FB0C94D610E92F0E94FE1058F3BA1781
:10231000620773078407950720F079F4A6F50C94FB
:1023200020110EF4E0950B2EBA2FA02D0B01B90150
:1023300090010C01CA01A0011124FF27591B99F03B
:10234000593F50F4503E68F11A16F040A22F232F47
:10235000342F4427585FF3CF469537952795A79597
:10236000F0405395C9F77EF41F16BA0B620B730B3E
:10237000840BBAF09150A1F0FF0FBB1F661F771FAF
:10238000881FC2F70EC0BA0F621F731F841F48F464
:10239000879577956795B795F7959E3F08F0B0CFED
:1023A0009395880F08F09927EE0F979587950895D4
:1023B0000E94EC110C94ED100E94E61058F00E945F
:1023C000DF1040F029F45F3F29F00C94D610511132
:1023D0000C9421110C94DC100E94FE1068F39923D8
:1023E000B1F3552391F3951B550BBB27AA27621711
:1023F0007307840738F09F5F5F4F220F331F441F1E
:10240000AA1FA9F335D00E2E3AF0E0E832D0915051
:102410005040E695001CCAF72BD0FE2F29D0660F3E
:10242000771F881FBB1F261737074807AB07B0E881
:1024300009F0BB0B802DBF01FF2793585F4F3AF087
:102440009E3F510578F00C94D6100C9421115F3FFB
:10245000E4F3983ED4F3869577956795B795F7950D
:102460009F5FC9F7880F911D9695879597F90895F5
:10247000E1E0660F771F881FBB1F62177307840791
:10248000BA0720F0621B730B840BBA0BEE1F88F7A0
:10249000E09508950E9451126894B1110C94211195
:1024A00008950E94061188F09F5798F0B92F992738
:1024B000B751B0F0E1F0660F771F881F991F1AF02F
:1024C000BA95C9F714C0B13091F00E942011B1E063
:1024D00008950C942011672F782F8827B85F39F062
:1024E000B93FCCF3869577956795B395D9F73EF4C8
:1024F00090958095709561957F4F8F4F9F4F089570
:102500000E94421008F48FEF08950F931F93CF930A
:10251000DF938230910510F482E090E0E091520464
:10252000F091530430E020E0B0E0A0E0309799F45F
:102530002115310509F44AC0281B390B2430310517
:10254000D8F58A819B816115710589F1FB0193831F
:102550008283FE0111C0408151810281138148179D
:102560005907E0F04817590799F4109761F012964F
:102570000C93129713961C933296CF01DF91CF9153
:102580001F910F9108950093520410935304F4CFB8
:102590002115310551F04217530738F0A901DB012D
:1025A0009A01BD01DF01F801C1CFEF01F9CF90938E
:1025B000530480935204CDCFFE01E20FF31F8193A9
:1025C00091932250310939832883D7CF2091500429
:1025D00030915104232B41F42091120230911302C7
:1025E0003093510420935004209110023091110235
:1025F0002115310541F42DB73EB740911402509199
:102600001502241B350BE0915004F0915104E217A0
:10261000F307A0F42E1B3F0B2817390778F0AC0105
:102620004E5F5F4F2417350748F04E0F5F1F5093E2
:10263000510440935004819391939FCFF0E0E0E0E8
:102640009CCFCF93DF930097E9F0FC013297138280
:102650001282A0915204B0915304ED0130E020E0C9
:102660001097A1F420813181820F931F2091500493
:10267000309151042817390709F061C0F0935104D3
:10268000E0935004DF91CF910895EA01CE17DF0760
:10269000E8F54A815B819E0141155105B1F7E901D9
:1026A000FB83EA8349915991C40FD51FEC17FD07AD
:1026B00061F4808191810296840F951FE9019983CD
:1026C0008883828193819B838A83F0E0E0E0129685
:1026D0008D919C9113970097B9F52D913C9111978D
:1026E000CD010296820F931F209150043091510426
:1026F0002817390739F6309751F510925304109284
:102700005204B0935104A0935004BCCFD383C2832E
:1027100040815181840F951FC817D90761F44E5F1E
:102720005F4F88819981480F591F518340838A8167
:102730009B81938382832115310509F0B0CFF093FB
:102740005304E09352049ECFFD01DC01C0CF1382FD
:102750001282D7CF4F925F926F927F928F929F9209
:10276000AF92BF92CF92DF92EF92FF920F931F939F
:10277000CF93DF938C01009799F4CB01DF91CF9138
:102780001F910F91FF90EF90DF90CF90BF90AF908F
:102790009F908F907F906F905F904F900C948512D8
:1027A000FC01E60FF71F9C0122503109E217F307E5
:1027B00008F4AEC0D901CD91DC911197C617D707A7
:1027C00020F1C530D10578F0CE0104978617970720
:1027D00050F0C61BD70B2297C193D1936D937C9376
:1027E000CF010E942113C801DF91CF911F910F915A
:1027F000FF90EF90DF90CF90BF90AF909F908F9021
:102800007F906F905F904F9008955B01AC1ABD0A66
:102810004C018C0E9D1EA0915204B0915304512C7A
:10282000412CF12CE12C109731F5809150049091BE
:1028300051048815990509F05CC04616570608F042
:1028400058C08091100290911102009741F48DB709
:102850009EB74091140250911502841B950BE81706
:10286000F90708F055C0F0935104E0935004F901C2
:1028700071836083B8CF8D919C91119712966C9063
:10288000129713967C901397A815B90559F56C010A
:1028900042E0C40ED11CCA14DB0420F1AC014A1979
:1028A0005B09DA011296159780F062827382518378
:1028B0004083D9016D937C93E114F10471F0D70149
:1028C0001396FC93EE9312978ECF22968C0F9D1F3A
:1028D000F90191838083F301EFCFF0935304E093E8
:1028E000520481CF4816590608F42C017D01D3010A
:1028F0009ACFCB010E9485127C01009749F0AE016E
:10290000B8010E948B14C8010E94211387016BCF6C
:1029100010E000E068CFFB01DC0102C001900D92E5
:1029200041505040D8F70895FB01DC0101900D9211
:0A2930000020E1F70895F894FFCFAE
:10293A00A903A903A903A903A903A903A903A9032D
:10294A0000005404800032003300350034001300C4
:10295A0012000200030006001A001B0007001C00F8
:10296A001D000400160017000500180019000000D9
:10297A0000007204AA03D703BF043A04E6032C0436
:06298A002C000D0A000004
:00000001FF
